{
  "contracts/math/BancorFormula.sol": {
    "BancorFormula": {
      "abi": [
        {
          "constant": true,
          "inputs": [
            {
              "name": "_supply",
              "type": "uint256"
            },
            {
              "name": "_reserveBalance",
              "type": "uint256"
            },
            {
              "name": "_reserveRatio",
              "type": "uint32"
            },
            {
              "name": "_depositAmount",
              "type": "uint256"
            }
          ],
          "name": "calculatePurchaseReturn",
          "outputs": [
            {
              "name": "",
              "type": "uint256"
            }
          ],
          "payable": false,
          "stateMutability": "view",
          "type": "function"
        },
        {
          "constant": true,
          "inputs": [
            {
              "name": "_supply",
              "type": "uint256"
            },
            {
              "name": "_reserveBalance",
              "type": "uint256"
            },
            {
              "name": "_reserveRatio",
              "type": "uint32"
            },
            {
              "name": "_sellAmount",
              "type": "uint256"
            }
          ],
          "name": "calculateSaleReturn",
          "outputs": [
            {
              "name": "",
              "type": "uint256"
            }
          ],
          "payable": false,
          "stateMutability": "view",
          "type": "function"
        },
        {
          "constant": true,
          "inputs": [],
          "name": "version",
          "outputs": [
            {
              "name": "",
              "type": "string"
            }
          ],
          "payable": false,
          "stateMutability": "view",
          "type": "function"
        }
      ],
      "devdoc": {
        "methods": {
          "calculatePurchaseReturn(uint256,uint256,uint32,uint256)": {
            "details": "given a continuous token supply, reserve token balance, reserve ratio, and a deposit amount (in the reserve token), calculates the return for a given conversion (in the continuous token)    * Formula: Return = _supply * ((1 + _depositAmount / _reserveBalance) ^ (_reserveRatio / MAX_RESERVE_RATIO) - 1)",
            "params": {
              "_depositAmount": "deposit amount, in reserve token",
              "_reserveBalance": "total reserve token balance",
              "_reserveRatio": "reserve ratio, represented in ppm, 1-1000000",
              "_supply": "continuous token total supply"
            },
            "return": "purchase return amount"
          },
          "calculateSaleReturn(uint256,uint256,uint32,uint256)": {
            "details": "given a continuous token supply, reserve token balance, reserve ratio and a sell amount (in the continuous token), calculates the return for a given conversion (in the reserve token)    * Formula: Return = _reserveBalance * (1 - (1 - _sellAmount / _supply) ^ (1 / (_reserveRatio / MAX_RESERVE_RATIO)))",
            "params": {
              "_reserveBalance": "total reserve token balance",
              "_reserveRatio": "constant reserve ratio, represented in ppm, 1-1000000",
              "_sellAmount": "sell amount, in the continuous token itself",
              "_supply": "continuous token total supply"
            },
            "return": "sale return amount"
          }
        },
        "title": "Bancor formula by Bancor * Licensed to the Apache Software Foundation (ASF) under one or more contributor license agreements; and to You under the Apache License, Version 2.0. \""
      },
      "evm": {
        "bytecode": {
          "linkReferences": {},
          "object": "60c0604052600360808190527f302e33000000000000000000000000000000000000000000000000000000000060a0908152620000409160009190620007e9565b506001606060020a641c35fedd1502036021556001605e60020a646c3390ecc902036022556001606160020a640cf801476102036023556001605f60020a6431bdb23e1d02036024556001605b60020a6502fb1d8fe08302036025556001605a60020a6505b771955b3702036026556001605960020a650af67a93bb5102036027556001605860020a6515060c256cb302036028556001605860020a651428a2f98d7302036029556001605660020a654d51566397090203602a556001605560020a65944620b0e70f0203602b557011c592761c666fffffffffffffffffffff602c5570110a688680a757ffffffffffffffffffff602d55701056f1b5bedf77ffffffffffffffffffff602e55700faadceceeff8bffffffffffffffffffff602f55700f05dc6b27edadffffffffffffffffffff603055700e67a5a25da4107fffffffffffffffffff603155700dcff115b14eedffffffffffffffffffff603255700d3e7a392431239fffffffffffffffffff603355700cb2ff529eb71e4fffffffffffffffffff603455700c2d415c3db974afffffffffffffffffff603555700bad03e7d883f69bffffffffffffffffff603655700b320d03b2c343d5ffffffffffffffffff603755700abc25204e02828dffffffffffffffffff603855700a4b16f74ee4bb207fffffffffffffffff6039557009deaf736ac1f569ffffffffffffffffff603a55700976bd9952c7aa957fffffffffffffffff603b557009131271922eaa606fffffffffffffffff603c557008b380f3558668c46fffffffffffffffff603d55700857ddf0117efa215bffffffffffffffff603e556001608360020a03603f557007abbf6f6abb9d087fffffffffffffffff60405570075af62cbac95f7dfa7fffffffffffffff60415570070d7fb7452e187ac13fffffffffffffff6042557006c3390ecc8af379295fffffffffffffff60435570067c00a3b07ffc01fd6fffffffffffffff604455700637b647c39cbb9d3d27ffffffffffffff6045557005f63b1fc104dbd39587ffffffffffffff6046557005b771955b36e12f7235ffffffffffffff60475570057b3d49dda84556d6f6ffffffffffffff60485570054183095b2c8ececf30ffffffffffffff60495570050a28be635ca2b888f77fffffffffffff604a557004d5156639708c9db33c3fffffffffffff604b557004a23105873875bd52dfdfffffffffffff604c55700471649d87199aa990756fffffffffffff604d557004429a21a029d4c1457cfbffffffffffff604e55700415bc6d6fb7dd71af2cb3ffffffffffff604f557003eab73b3bbfe282243ce1ffffffffffff6050557003c1771ac9fb6b4c18e229ffffffffffff605155700399e96897690418f785257fffffffffff605255700373fc456c53bb779bf0ea9fffffffffff60535570034f9e8e490c48e67e6ab8bfffffffffff60545570032cbfd4a7adc790560b3337ffffffffff60555570030b50570f6e5d2acca94613ffffffffff6056557002eb40f9f620fda6b56c2861ffffffffff6057557002cc8340ecb0d0f520a6af58ffffffffff6058557002af09481380a0a35cf1ba02ffffffffff605955700292c5bdd3b92ec810287b1b3fffffffff605a55700277abdcdab07d5a77ac6d6b9fffffffff605b5570025daf6654b1eaa55fd64df5efffffffff605c55700244c49c648baa98192dce88b7ffffffff605d5570022ce03cd5619a311b2471268bffffffff605e55700215f77c045fbe885654a44a0fffffffff605f556001608160020a036060557001eaefdbdaaee7421fc4d3ede5ffffffff6061557001d6bd8b2eb257df7e8ca57b09bfffffff6062557001c35fedd14b861eb0443f7f133fffffff6063557001b0ce43b322bcde4a56e8ada5afffffff60645570019f0028ec1fff007f5a195a39dfffffff60655570018ded91f0e72ee74f49b15ba527ffffff60665570017d8ec7f04136f4e5615fd41a63ffffff60675570016ddc6556cdb84bdc8d12d22e6fffffff60685570015ecf52776a1155b5bd8395814f7fffff60695570015060c256cb23b3b3cc3754cf40ffffff606a557001428a2f98d728ae223ddab715be3fffff606b5570013545598e5c23276ccf0ede68034fffff606c557001288c4161ce1d6f54b7f61081194fffff606d5570011c592761c666aa641d5a01a40f17ffff606e55700110a688680a7530515f3e6e6cfdcdffff606f557001056f1b5bedf75c6bcb2ce8aed428ffff6070556ffaadceceeff8a0890f3875f008277fff6071556ff05dc6b27edad306388a600f6ba0bfff6072556fe67a5a25da41063de1495d5b18cdbfff6073556fdcff115b14eedde6fc3aa5353f2e4fff6074556fd3e7a3924312399f9aae2e0f868f8fff6075556fcb2ff529eb71e41582cccd5a1ee26fff6076556fc2d415c3db974ab32a51840c0b67edff6077556fbad03e7d883f69ad5b0a186184e06bff6078556fb320d03b2c343d4829abd6075f0cc5ff6079556fabc25204e02828d73c6e80bcdb1a95bf607a556fa4b16f74ee4bb2040a1ec6c15fbbf2df607b556f9deaf736ac1f569deb1b5ae3f36c130f607c556f976bd9952c7aa957f5937d790ef65037607d556f9131271922eaa6064b73a22d0bd4f2bf607e556f8b380f3558668c46c91c49a2f8e967b9607f556f857ddf0117efa215952912839f6473e66080556200088e565b828054600181600116156101000203166002900490600052602060002090601f016020900481019282601f106200082c57805160ff19168380011785556200085c565b828001600101855582156200085c579182015b828111156200085c5782518255916020019190600101906200083f565b506200086a9291506200086e565b5090565b6200088b91905b808211156200086a576000815560010162000875565b90565b6114c7806200089e6000396000f3006080604052600436106100565763ffffffff7c010000000000000000000000000000000000000000000000000000000060003504166329a00e7c811461005b57806349f9b0f71461009457806354fd4d50146100bb575b600080fd5b34801561006757600080fd5b5061008260043560243563ffffffff60443516606435610145565b60408051918252519081900360200190f35b3480156100a057600080fd5b5061008260043560243563ffffffff60443516606435610284565b3480156100c757600080fd5b506100d06103d8565b6040805160208082528351818301528351919283929083019185019080838360005b8381101561010a5781810151838201526020016100f2565b50505050905090810190601f1680156101375780820380516001836020036101000a031916815260200191505b509250505060405180910390f35b6000806000806000808911801561015c5750600088115b801561016e575060008763ffffffff16115b80156101835750620f424063ffffffff881611155b15156101d9576040805160e560020a62461bcd02815260206004820152600f60248201527f496e76616c696420696e707574732e0000000000000000000000000000000000604482015290519081900360640190fd5b8515156101e95760009450610278565b63ffffffff8716620f424014156102215761021a8861020e8b8963ffffffff61046616565b9063ffffffff61049f16565b9450610278565b610231868963ffffffff6104c216565b9150610242828989620f42406104d4565b909450925060ff831661025b8a8663ffffffff61046616565b60029190910a90049050610275818a63ffffffff61066116565b94505b50505050949350505050565b60008060008060008060008a11801561029d5750600089115b80156102af575060008863ffffffff16115b80156102c45750620f424063ffffffff891611155b80156102d05750898711155b1515610326576040805160e560020a62461bcd02815260206004820152600f60248201527f496e76616c696420696e707574732e0000000000000000000000000000000000604482015290519081900360640190fd5b86151561033657600095506103cb565b89871415610346578895506103cb565b63ffffffff8816620f424014156103725761036b8a61020e8b8a63ffffffff61046616565b95506103cb565b6103828a8863ffffffff61066116565b92506103938a84620f42408b6104d4565b90955093506103a8898663ffffffff61046616565b91505060ff831660020a88026103c88561020e848463ffffffff61066116565b95505b5050505050949350505050565b6000805460408051602060026001851615610100026000190190941693909304601f8101849004840282018401909252818152929183018282801561045e5780601f106104335761010080835404028352916020019161045e565b820191906000526020600020905b81548152906001019060200180831161044157829003601f168201915b505050505081565b6000808315156104795760009150610498565b5082820282848281151561048957fe5b041461049457600080fd5b8091505b5092915050565b6000808083116104ae57600080fd5b82848115156104b957fe5b04949350505050565b60008282018381101561049457600080fd5b600080808080807002000000000000000000000000000000008a10610543576040805160e560020a62461bcd02815260206004820152601860248201527f626173654e2065786365656473206d61782076616c75652e0000000000000000604482015290519081900360640190fd5b888a101561059b576040805160e560020a62461bcd02815260206004820152601c60248201527f4261736573203c203120617265206e6f7420737570706f727465642e00000000604482015290519081900360640190fd5b88607f60020a8b028115156105ac57fe5b04925070015bf0a8b1457695355fb8ac404e7a79e38310156105d8576105d183610678565b93506105e4565b6105e183610a9d565b93505b8663ffffffff168863ffffffff1685028115156105fd57fe5b04915070080000000000000000000000000000000082101561062d5761062282610b6f565b607f95509550610654565b61063682610f7f565b905061064e60ff607f8390031660020a83048261100e565b81955095505b5050505094509492505050565b6000808383111561067157600080fd5b5050900390565b6000808080806fd3094c70f034de4b96ff7d5b6f99fcd886106106c7576f4000000000000000000000000000000093909301926fd3094c70f034de4b96ff7d5b6f99fcd8607f60020a87020495505b6fa45af1e1f40c333b3de1db4dd55f29a78610610710576f2000000000000000000000000000000093909301926fa45af1e1f40c333b3de1db4dd55f29a7607f60020a87020495505b6f910b022db7ae67ce76b441c27035c6a18610610759576f1000000000000000000000000000000093909301926f910b022db7ae67ce76b441c27035c6a1607f60020a87020495505b6f88415abbe9a76bead8d00cf112e4d4a886106107a2576f0800000000000000000000000000000093909301926f88415abbe9a76bead8d00cf112e4d4a8607f60020a87020495505b6f84102b00893f64c705e841d5d4064bd386106107eb576f0400000000000000000000000000000093909301926f84102b00893f64c705e841d5d4064bd3607f60020a87020495505b6f8204055aaef1c8bd5c3259f4822735a28610610834576f0200000000000000000000000000000093909301926f8204055aaef1c8bd5c3259f4822735a2607f60020a87020495505b6f810100ab00222d861931c15e39b44e99861061087d576f0100000000000000000000000000000093909301926f810100ab00222d861931c15e39b44e99607f60020a87020495505b6f808040155aabbbe9451521693554f73386106108c5576e80000000000000000000000000000093909301926f808040155aabbbe9451521693554f733607f60020a87020495505b6f7fffffffffffffffffffffffffffffff1986019250829150607f60020a8280020490507001000000000000000000000000000000008381038302049390930192607f60020a8282020491507002000000000000000000000000000000006faaaaaaaaaaaaaaaaaaaaaaaaaaaaaaaa8490038302049390930192607f60020a8282020491507003000000000000000000000000000000006f999999999999999999999999999999998490038302049390930192607f60020a8282020491507004000000000000000000000000000000006f924924924924924924924924924924928490038302049390930192607f60020a8282020491507005000000000000000000000000000000006f8e38e38e38e38e38e38e38e38e38e38e8490038302049390930192607f60020a8282020491507006000000000000000000000000000000006f8ba2e8ba2e8ba2e8ba2e8ba2e8ba2e8b8490038302049390930192607f60020a8282020491507007000000000000000000000000000000006f89d89d89d89d89d89d89d89d89d89d898490038302049390930192607f60020a8282020491507008000000000000000000000000000000006f888888888888888888888888888888888490038302049390930195945050505050565b6000808281807001000000000000000000000000000000008310610ae157610aca607f60020a8404611431565b60ff8116607f60020a8102955060020a9093049291505b607f60020a831115610b405750607f5b60008160ff161115610b4057607f60020a8380020492507001000000000000000000000000000000008310610b375760ff600019820116600290810a9490940193909204915b60001901610af1565b6f05b9de1d10bf4103d647b0955897ba806f03f80fe03f80fe03f80fe03f80fe03f88502049695505050505050565b6000670168244fdac78000607f60020a6f0fffffffffffffffffffffffffffffff84168080028290048082028390048083028490049485026710e1b3be415a00009092026705a0913f6b1e000091909102010192909181830204905080664807432bc180000283019250607f60020a828202811515610bea57fe5b04905080660c0135dca040000283019250607f60020a828202811515610c0c57fe5b049050806601b707b1cdc0000283019250607f60020a828202811515610c2e57fe5b049050806536e0f639b8000283019250607f60020a828202811515610c4f57fe5b04905080650618fee9f8000283019250607f60020a828202811515610c7057fe5b04905080649c197dcc000283019250607f60020a828202811515610c9057fe5b04905080640e30dce4000283019250607f60020a828202811515610cb057fe5b0490508064012ebd13000283019250607f60020a828202811515610cd057fe5b049050806317499f000283019250607f60020a828202811515610cef57fe5b049050806301a9d4800283019250607f60020a828202811515610d0e57fe5b04905080621c63800283019250607f60020a828202811515610d2c57fe5b049050806201c6380283019250607f60020a828202811515610d4a57fe5b04905080611ab80283019250607f60020a828202811515610d6757fe5b0490508061017c0283019250607f60020a828202811515610d8457fe5b0490508060140283019250607f60020a828202811515610da057fe5b6721c3677c82b40000919004938401048201607f60020a019290506f10000000000000000000000000000000851615610dfd5770018ebef9eac820ae8682b9793ac6d1e7767001c3d6a24ed82218787d624d3e5eba95f984020492505b6f20000000000000000000000000000000851615610e3f577001368b2fc6f9609fe7aceb46aa619baed470018ebef9eac820ae8682b9793ac6d1e77884020492505b6f40000000000000000000000000000000851615610e80576fbc5ab1b16779be3575bd8f0520a9f21f7001368b2fc6f9609fe7aceb46aa619baed584020492505b607f60020a851615610eb4576f454aaa8efe072e7f6ddbab84b40a55c96fbc5ab1b16779be3575bd8f0520a9f21e84020492505b700100000000000000000000000000000000851615610ef5576f0960aadc109e7a3bf4578099615711ea6f454aaa8efe072e7f6ddbab84b40a55c584020492505b700200000000000000000000000000000000851615610f35576e2bf84208204f5977f9a8cf01fdce3d6f0960aadc109e7a3bf4578099615711d784020492505b700400000000000000000000000000000000851615610f73576d03c6ab775dd0b95b4cbee7e65d116e2bf84208204f5977f9a8cf01fdc30784020492505b8293505b505050919050565b60006020607f825b8160ff168360010160ff161015610fcc57600260ff8484011604905084600160ff831660808110610fb457fe5b015410610fc357809250610fc7565b8091505b610f87565b84600160ff841660808110610fdd57fe5b015410610fec57819350610f77565b84600160ff851660808110610ffd57fe5b01541061100c57829350610f77565bfe5b6000806000849150600090508360ff168583029060020a90049150816f03442c4e6074a82f1797f72ac000000002810190508360ff168583029060020a90049150816f0116b96f757c380fb287fd0e4000000002810190508360ff168583029060020a90049150816e45ae5bdd5f0e03eca1ff439000000002810190508360ff168583029060020a90049150816e0defabf91302cd95b9ffda5000000002810190508360ff168583029060020a90049150816e02529ca9832b22439efff9b800000002810190508360ff168583029060020a90049150816d54f1cf12bd04e516b6da8800000002810190508360ff168583029060020a90049150816d0a9e39e257a09ca2d6db5100000002810190508360ff168583029060020a90049150816d012e066e7b839fa050c30900000002810190508360ff168583029060020a90049150816c1e33d7d926c329a1ad1a80000002810190508360ff168583029060020a90049150816c02bee513bdb4a6b19b5f80000002810190508360ff168583029060020a90049150816b3a9316fa79b88eccf2a0000002810190508360ff168583029060020a90049150816b048177ebe1fa81237520000002810190508360ff168583029060020a90049150816a5263fe90242dcbacf0000002810190508360ff168583029060020a90049150816a057e22099c030d9410000002810190508360ff168583029060020a90049150816957e22099c030d941000002810190508360ff168583029060020a900491508169052b6b5456997631000002810190508360ff168583029060020a9004915081684985f67696bf74800002810190508360ff168583029060020a90049150816803dea12ea99e49800002810190508360ff168583029060020a90049150816731880f2214b6e00002810190508360ff168583029060020a900491508167025bcff56eb3600002810190508360ff168583029060020a9004915081661b722e10ab100002810190508360ff168583029060020a90049150816601317c7007700002810190508360ff168583029060020a9004915081650cba84aafa0002810190508360ff168583029060020a90049150816482573a0a0002810190508360ff168583029060020a90049150816405035ad90002810190508360ff168583029060020a9004915081632f881b0002810190508360ff168583029060020a90049150816301b2934002810190508360ff168583029060020a9004915081620efc4002810190508360ff168583029060020a9004915081617fe002810190508360ff168583029060020a900491508161042002810190508360ff168583029060020a9004915081602102810190508360ff168583029060020a9004915081600102810190508360ff1660019060020a02856f0688589cc0e9505e2f2fee55800000008381151561142557fe5b04010195945050505050565b6000808281610100821015611461575b600182111561145c5760019290920191600290910490611441565b610f73565b5060805b60008160ff161115610f735760ff811660020a821061148e579182179160ff811660020a909104905b600260ff909116046114655600a165627a7a72305820d912811020269dc1d138fdf327ecf5ec09428e4d3c4f60d25082b20d6bdfee3c0029",
          "opcodes": "PUSH1 0xC0 PUSH1 0x40 MSTORE PUSH1 0x3 PUSH1 0x80 DUP2 SWAP1 MSTORE PUSH32 0x302E330000000000000000000000000000000000000000000000000000000000 PUSH1 0xA0 SWAP1 DUP2 MSTORE PUSH3 0x40 SWAP2 PUSH1 0x0 SWAP2 SWAP1 PUSH3 0x7E9 JUMP JUMPDEST POP PUSH1 0x1 PUSH1 0x60 PUSH1 0x2 EXP PUSH5 0x1C35FEDD15 MUL SUB PUSH1 0x21 SSTORE PUSH1 0x1 PUSH1 0x5E PUSH1 0x2 EXP PUSH5 0x6C3390ECC9 MUL SUB PUSH1 0x22 SSTORE PUSH1 0x1 PUSH1 0x61 PUSH1 0x2 EXP PUSH5 0xCF8014761 MUL SUB PUSH1 0x23 SSTORE PUSH1 0x1 PUSH1 0x5F PUSH1 0x2 EXP PUSH5 0x31BDB23E1D MUL SUB PUSH1 0x24 SSTORE PUSH1 0x1 PUSH1 0x5B PUSH1 0x2 EXP PUSH6 0x2FB1D8FE083 MUL SUB PUSH1 0x25 SSTORE PUSH1 0x1 PUSH1 0x5A PUSH1 0x2 EXP PUSH6 0x5B771955B37 MUL SUB PUSH1 0x26 SSTORE PUSH1 0x1 PUSH1 0x59 PUSH1 0x2 EXP PUSH6 0xAF67A93BB51 MUL SUB PUSH1 0x27 SSTORE PUSH1 0x1 PUSH1 0x58 PUSH1 0x2 EXP PUSH6 0x15060C256CB3 MUL SUB PUSH1 0x28 SSTORE PUSH1 0x1 PUSH1 0x58 PUSH1 0x2 EXP PUSH6 0x1428A2F98D73 MUL SUB PUSH1 0x29 SSTORE PUSH1 0x1 PUSH1 0x56 PUSH1 0x2 EXP PUSH6 0x4D5156639709 MUL SUB PUSH1 0x2A SSTORE PUSH1 0x1 PUSH1 0x55 PUSH1 0x2 EXP PUSH6 0x944620B0E70F MUL SUB PUSH1 0x2B SSTORE PUSH17 0x11C592761C666FFFFFFFFFFFFFFFFFFFFF PUSH1 0x2C SSTORE PUSH17 0x110A688680A757FFFFFFFFFFFFFFFFFFFF PUSH1 0x2D SSTORE PUSH17 0x1056F1B5BEDF77FFFFFFFFFFFFFFFFFFFF PUSH1 0x2E SSTORE PUSH17 0xFAADCECEEFF8BFFFFFFFFFFFFFFFFFFFF PUSH1 0x2F SSTORE PUSH17 0xF05DC6B27EDADFFFFFFFFFFFFFFFFFFFF PUSH1 0x30 SSTORE PUSH17 0xE67A5A25DA4107FFFFFFFFFFFFFFFFFFF PUSH1 0x31 SSTORE PUSH17 0xDCFF115B14EEDFFFFFFFFFFFFFFFFFFFF PUSH1 0x32 SSTORE PUSH17 0xD3E7A392431239FFFFFFFFFFFFFFFFFFF PUSH1 0x33 SSTORE PUSH17 0xCB2FF529EB71E4FFFFFFFFFFFFFFFFFFF PUSH1 0x34 SSTORE PUSH17 0xC2D415C3DB974AFFFFFFFFFFFFFFFFFFF PUSH1 0x35 SSTORE PUSH17 0xBAD03E7D883F69BFFFFFFFFFFFFFFFFFF PUSH1 0x36 SSTORE PUSH17 0xB320D03B2C343D5FFFFFFFFFFFFFFFFFF PUSH1 0x37 SSTORE PUSH17 0xABC25204E02828DFFFFFFFFFFFFFFFFFF PUSH1 0x38 SSTORE PUSH17 0xA4B16F74EE4BB207FFFFFFFFFFFFFFFFF PUSH1 0x39 SSTORE PUSH17 0x9DEAF736AC1F569FFFFFFFFFFFFFFFFFF PUSH1 0x3A SSTORE PUSH17 0x976BD9952C7AA957FFFFFFFFFFFFFFFFF PUSH1 0x3B SSTORE PUSH17 0x9131271922EAA606FFFFFFFFFFFFFFFFF PUSH1 0x3C SSTORE PUSH17 0x8B380F3558668C46FFFFFFFFFFFFFFFFF PUSH1 0x3D SSTORE PUSH17 0x857DDF0117EFA215BFFFFFFFFFFFFFFFF PUSH1 0x3E SSTORE PUSH1 0x1 PUSH1 0x83 PUSH1 0x2 EXP SUB PUSH1 0x3F SSTORE PUSH17 0x7ABBF6F6ABB9D087FFFFFFFFFFFFFFFFF PUSH1 0x40 SSTORE PUSH17 0x75AF62CBAC95F7DFA7FFFFFFFFFFFFFFF PUSH1 0x41 SSTORE PUSH17 0x70D7FB7452E187AC13FFFFFFFFFFFFFFF PUSH1 0x42 SSTORE PUSH17 0x6C3390ECC8AF379295FFFFFFFFFFFFFFF PUSH1 0x43 SSTORE PUSH17 0x67C00A3B07FFC01FD6FFFFFFFFFFFFFFF PUSH1 0x44 SSTORE PUSH17 0x637B647C39CBB9D3D27FFFFFFFFFFFFFF PUSH1 0x45 SSTORE PUSH17 0x5F63B1FC104DBD39587FFFFFFFFFFFFFF PUSH1 0x46 SSTORE PUSH17 0x5B771955B36E12F7235FFFFFFFFFFFFFF PUSH1 0x47 SSTORE PUSH17 0x57B3D49DDA84556D6F6FFFFFFFFFFFFFF PUSH1 0x48 SSTORE PUSH17 0x54183095B2C8ECECF30FFFFFFFFFFFFFF PUSH1 0x49 SSTORE PUSH17 0x50A28BE635CA2B888F77FFFFFFFFFFFFF PUSH1 0x4A SSTORE PUSH17 0x4D5156639708C9DB33C3FFFFFFFFFFFFF PUSH1 0x4B SSTORE PUSH17 0x4A23105873875BD52DFDFFFFFFFFFFFFF PUSH1 0x4C SSTORE PUSH17 0x471649D87199AA990756FFFFFFFFFFFFF PUSH1 0x4D SSTORE PUSH17 0x4429A21A029D4C1457CFBFFFFFFFFFFFF PUSH1 0x4E SSTORE PUSH17 0x415BC6D6FB7DD71AF2CB3FFFFFFFFFFFF PUSH1 0x4F SSTORE PUSH17 0x3EAB73B3BBFE282243CE1FFFFFFFFFFFF PUSH1 0x50 SSTORE PUSH17 0x3C1771AC9FB6B4C18E229FFFFFFFFFFFF PUSH1 0x51 SSTORE PUSH17 0x399E96897690418F785257FFFFFFFFFFF PUSH1 0x52 SSTORE PUSH17 0x373FC456C53BB779BF0EA9FFFFFFFFFFF PUSH1 0x53 SSTORE PUSH17 0x34F9E8E490C48E67E6AB8BFFFFFFFFFFF PUSH1 0x54 SSTORE PUSH17 0x32CBFD4A7ADC790560B3337FFFFFFFFFF PUSH1 0x55 SSTORE PUSH17 0x30B50570F6E5D2ACCA94613FFFFFFFFFF PUSH1 0x56 SSTORE PUSH17 0x2EB40F9F620FDA6B56C2861FFFFFFFFFF PUSH1 0x57 SSTORE PUSH17 0x2CC8340ECB0D0F520A6AF58FFFFFFFFFF PUSH1 0x58 SSTORE PUSH17 0x2AF09481380A0A35CF1BA02FFFFFFFFFF PUSH1 0x59 SSTORE PUSH17 0x292C5BDD3B92EC810287B1B3FFFFFFFFF PUSH1 0x5A SSTORE PUSH17 0x277ABDCDAB07D5A77AC6D6B9FFFFFFFFF PUSH1 0x5B SSTORE PUSH17 0x25DAF6654B1EAA55FD64DF5EFFFFFFFFF PUSH1 0x5C SSTORE PUSH17 0x244C49C648BAA98192DCE88B7FFFFFFFF PUSH1 0x5D SSTORE PUSH17 0x22CE03CD5619A311B2471268BFFFFFFFF PUSH1 0x5E SSTORE PUSH17 0x215F77C045FBE885654A44A0FFFFFFFFF PUSH1 0x5F SSTORE PUSH1 0x1 PUSH1 0x81 PUSH1 0x2 EXP SUB PUSH1 0x60 SSTORE PUSH17 0x1EAEFDBDAAEE7421FC4D3EDE5FFFFFFFF PUSH1 0x61 SSTORE PUSH17 0x1D6BD8B2EB257DF7E8CA57B09BFFFFFFF PUSH1 0x62 SSTORE PUSH17 0x1C35FEDD14B861EB0443F7F133FFFFFFF PUSH1 0x63 SSTORE PUSH17 0x1B0CE43B322BCDE4A56E8ADA5AFFFFFFF PUSH1 0x64 SSTORE PUSH17 0x19F0028EC1FFF007F5A195A39DFFFFFFF PUSH1 0x65 SSTORE PUSH17 0x18DED91F0E72EE74F49B15BA527FFFFFF PUSH1 0x66 SSTORE PUSH17 0x17D8EC7F04136F4E5615FD41A63FFFFFF PUSH1 0x67 SSTORE PUSH17 0x16DDC6556CDB84BDC8D12D22E6FFFFFFF PUSH1 0x68 SSTORE PUSH17 0x15ECF52776A1155B5BD8395814F7FFFFF PUSH1 0x69 SSTORE PUSH17 0x15060C256CB23B3B3CC3754CF40FFFFFF PUSH1 0x6A SSTORE PUSH17 0x1428A2F98D728AE223DDAB715BE3FFFFF PUSH1 0x6B SSTORE PUSH17 0x13545598E5C23276CCF0EDE68034FFFFF PUSH1 0x6C SSTORE PUSH17 0x1288C4161CE1D6F54B7F61081194FFFFF PUSH1 0x6D SSTORE PUSH17 0x11C592761C666AA641D5A01A40F17FFFF PUSH1 0x6E SSTORE PUSH17 0x110A688680A7530515F3E6E6CFDCDFFFF PUSH1 0x6F SSTORE PUSH17 0x1056F1B5BEDF75C6BCB2CE8AED428FFFF PUSH1 0x70 SSTORE PUSH16 0xFAADCECEEFF8A0890F3875F008277FFF PUSH1 0x71 SSTORE PUSH16 0xF05DC6B27EDAD306388A600F6BA0BFFF PUSH1 0x72 SSTORE PUSH16 0xE67A5A25DA41063DE1495D5B18CDBFFF PUSH1 0x73 SSTORE PUSH16 0xDCFF115B14EEDDE6FC3AA5353F2E4FFF PUSH1 0x74 SSTORE PUSH16 0xD3E7A3924312399F9AAE2E0F868F8FFF PUSH1 0x75 SSTORE PUSH16 0xCB2FF529EB71E41582CCCD5A1EE26FFF PUSH1 0x76 SSTORE PUSH16 0xC2D415C3DB974AB32A51840C0B67EDFF PUSH1 0x77 SSTORE PUSH16 0xBAD03E7D883F69AD5B0A186184E06BFF PUSH1 0x78 SSTORE PUSH16 0xB320D03B2C343D4829ABD6075F0CC5FF PUSH1 0x79 SSTORE PUSH16 0xABC25204E02828D73C6E80BCDB1A95BF PUSH1 0x7A SSTORE PUSH16 0xA4B16F74EE4BB2040A1EC6C15FBBF2DF PUSH1 0x7B SSTORE PUSH16 0x9DEAF736AC1F569DEB1B5AE3F36C130F PUSH1 0x7C SSTORE PUSH16 0x976BD9952C7AA957F5937D790EF65037 PUSH1 0x7D SSTORE PUSH16 0x9131271922EAA6064B73A22D0BD4F2BF PUSH1 0x7E SSTORE PUSH16 0x8B380F3558668C46C91C49A2F8E967B9 PUSH1 0x7F SSTORE PUSH16 0x857DDF0117EFA215952912839F6473E6 PUSH1 0x80 SSTORE PUSH3 0x88E JUMP JUMPDEST DUP3 DUP1 SLOAD PUSH1 0x1 DUP2 PUSH1 0x1 AND ISZERO PUSH2 0x100 MUL SUB AND PUSH1 0x2 SWAP1 DIV SWAP1 PUSH1 0x0 MSTORE PUSH1 0x20 PUSH1 0x0 KECCAK256 SWAP1 PUSH1 0x1F ADD PUSH1 0x20 SWAP1 DIV DUP2 ADD SWAP3 DUP3 PUSH1 0x1F LT PUSH3 0x82C JUMPI DUP1 MLOAD PUSH1 0xFF NOT AND DUP4 DUP1 ADD OR DUP6 SSTORE PUSH3 0x85C JUMP JUMPDEST DUP3 DUP1 ADD PUSH1 0x1 ADD DUP6 SSTORE DUP3 ISZERO PUSH3 0x85C JUMPI SWAP2 DUP3 ADD JUMPDEST DUP3 DUP2 GT ISZERO PUSH3 0x85C JUMPI DUP3 MLOAD DUP3 SSTORE SWAP2 PUSH1 0x20 ADD SWAP2 SWAP1 PUSH1 0x1 ADD SWAP1 PUSH3 0x83F JUMP JUMPDEST POP PUSH3 0x86A SWAP3 SWAP2 POP PUSH3 0x86E JUMP JUMPDEST POP SWAP1 JUMP JUMPDEST PUSH3 0x88B SWAP2 SWAP1 JUMPDEST DUP1 DUP3 GT ISZERO PUSH3 0x86A JUMPI PUSH1 0x0 DUP2 SSTORE PUSH1 0x1 ADD PUSH3 0x875 JUMP JUMPDEST SWAP1 JUMP JUMPDEST PUSH2 0x14C7 DUP1 PUSH3 0x89E PUSH1 0x0 CODECOPY PUSH1 0x0 RETURN STOP PUSH1 0x80 PUSH1 0x40 MSTORE PUSH1 0x4 CALLDATASIZE LT PUSH2 0x56 JUMPI PUSH4 0xFFFFFFFF PUSH29 0x100000000000000000000000000000000000000000000000000000000 PUSH1 0x0 CALLDATALOAD DIV AND PUSH4 0x29A00E7C DUP2 EQ PUSH2 0x5B JUMPI DUP1 PUSH4 0x49F9B0F7 EQ PUSH2 0x94 JUMPI DUP1 PUSH4 0x54FD4D50 EQ PUSH2 0xBB JUMPI JUMPDEST PUSH1 0x0 DUP1 REVERT JUMPDEST CALLVALUE DUP1 ISZERO PUSH2 0x67 JUMPI PUSH1 0x0 DUP1 REVERT JUMPDEST POP PUSH2 0x82 PUSH1 0x4 CALLDATALOAD PUSH1 0x24 CALLDATALOAD PUSH4 0xFFFFFFFF PUSH1 0x44 CALLDATALOAD AND PUSH1 0x64 CALLDATALOAD PUSH2 0x145 JUMP JUMPDEST PUSH1 0x40 DUP1 MLOAD SWAP2 DUP3 MSTORE MLOAD SWAP1 DUP2 SWAP1 SUB PUSH1 0x20 ADD SWAP1 RETURN JUMPDEST CALLVALUE DUP1 ISZERO PUSH2 0xA0 JUMPI PUSH1 0x0 DUP1 REVERT JUMPDEST POP PUSH2 0x82 PUSH1 0x4 CALLDATALOAD PUSH1 0x24 CALLDATALOAD PUSH4 0xFFFFFFFF PUSH1 0x44 CALLDATALOAD AND PUSH1 0x64 CALLDATALOAD PUSH2 0x284 JUMP JUMPDEST CALLVALUE DUP1 ISZERO PUSH2 0xC7 JUMPI PUSH1 0x0 DUP1 REVERT JUMPDEST POP PUSH2 0xD0 PUSH2 0x3D8 JUMP JUMPDEST PUSH1 0x40 DUP1 MLOAD PUSH1 0x20 DUP1 DUP3 MSTORE DUP4 MLOAD DUP2 DUP4 ADD MSTORE DUP4 MLOAD SWAP2 SWAP3 DUP4 SWAP3 SWAP1 DUP4 ADD SWAP2 DUP6 ADD SWAP1 DUP1 DUP4 DUP4 PUSH1 0x0 JUMPDEST DUP4 DUP2 LT ISZERO PUSH2 0x10A JUMPI DUP2 DUP2 ADD MLOAD DUP4 DUP3 ADD MSTORE PUSH1 0x20 ADD PUSH2 0xF2 JUMP JUMPDEST POP POP POP POP SWAP1 POP SWAP1 DUP2 ADD SWAP1 PUSH1 0x1F AND DUP1 ISZERO PUSH2 0x137 JUMPI DUP1 DUP3 SUB DUP1 MLOAD PUSH1 0x1 DUP4 PUSH1 0x20 SUB PUSH2 0x100 EXP SUB NOT AND DUP2 MSTORE PUSH1 0x20 ADD SWAP2 POP JUMPDEST POP SWAP3 POP POP POP PUSH1 0x40 MLOAD DUP1 SWAP2 SUB SWAP1 RETURN JUMPDEST PUSH1 0x0 DUP1 PUSH1 0x0 DUP1 PUSH1 0x0 DUP1 DUP10 GT DUP1 ISZERO PUSH2 0x15C JUMPI POP PUSH1 0x0 DUP9 GT JUMPDEST DUP1 ISZERO PUSH2 0x16E JUMPI POP PUSH1 0x0 DUP8 PUSH4 0xFFFFFFFF AND GT JUMPDEST DUP1 ISZERO PUSH2 0x183 JUMPI POP PUSH3 0xF4240 PUSH4 0xFFFFFFFF DUP9 AND GT ISZERO JUMPDEST ISZERO ISZERO PUSH2 0x1D9 JUMPI PUSH1 0x40 DUP1 MLOAD PUSH1 0xE5 PUSH1 0x2 EXP PUSH3 0x461BCD MUL DUP2 MSTORE PUSH1 0x20 PUSH1 0x4 DUP3 ADD MSTORE PUSH1 0xF PUSH1 0x24 DUP3 ADD MSTORE PUSH32 0x496E76616C696420696E707574732E0000000000000000000000000000000000 PUSH1 0x44 DUP3 ADD MSTORE SWAP1 MLOAD SWAP1 DUP2 SWAP1 SUB PUSH1 0x64 ADD SWAP1 REVERT JUMPDEST DUP6 ISZERO ISZERO PUSH2 0x1E9 JUMPI PUSH1 0x0 SWAP5 POP PUSH2 0x278 JUMP JUMPDEST PUSH4 0xFFFFFFFF DUP8 AND PUSH3 0xF4240 EQ ISZERO PUSH2 0x221 JUMPI PUSH2 0x21A DUP9 PUSH2 0x20E DUP12 DUP10 PUSH4 0xFFFFFFFF PUSH2 0x466 AND JUMP JUMPDEST SWAP1 PUSH4 0xFFFFFFFF PUSH2 0x49F AND JUMP JUMPDEST SWAP5 POP PUSH2 0x278 JUMP JUMPDEST PUSH2 0x231 DUP7 DUP10 PUSH4 0xFFFFFFFF PUSH2 0x4C2 AND JUMP JUMPDEST SWAP2 POP PUSH2 0x242 DUP3 DUP10 DUP10 PUSH3 0xF4240 PUSH2 0x4D4 JUMP JUMPDEST SWAP1 SWAP5 POP SWAP3 POP PUSH1 0xFF DUP4 AND PUSH2 0x25B DUP11 DUP7 PUSH4 0xFFFFFFFF PUSH2 0x466 AND JUMP JUMPDEST PUSH1 0x2 SWAP2 SWAP1 SWAP2 EXP SWAP1 DIV SWAP1 POP PUSH2 0x275 DUP2 DUP11 PUSH4 0xFFFFFFFF PUSH2 0x661 AND JUMP JUMPDEST SWAP5 POP JUMPDEST POP POP POP POP SWAP5 SWAP4 POP POP POP POP JUMP JUMPDEST PUSH1 0x0 DUP1 PUSH1 0x0 DUP1 PUSH1 0x0 DUP1 PUSH1 0x0 DUP11 GT DUP1 ISZERO PUSH2 0x29D JUMPI POP PUSH1 0x0 DUP10 GT JUMPDEST DUP1 ISZERO PUSH2 0x2AF JUMPI POP PUSH1 0x0 DUP9 PUSH4 0xFFFFFFFF AND GT JUMPDEST DUP1 ISZERO PUSH2 0x2C4 JUMPI POP PUSH3 0xF4240 PUSH4 0xFFFFFFFF DUP10 AND GT ISZERO JUMPDEST DUP1 ISZERO PUSH2 0x2D0 JUMPI POP DUP10 DUP8 GT ISZERO JUMPDEST ISZERO ISZERO PUSH2 0x326 JUMPI PUSH1 0x40 DUP1 MLOAD PUSH1 0xE5 PUSH1 0x2 EXP PUSH3 0x461BCD MUL DUP2 MSTORE PUSH1 0x20 PUSH1 0x4 DUP3 ADD MSTORE PUSH1 0xF PUSH1 0x24 DUP3 ADD MSTORE PUSH32 0x496E76616C696420696E707574732E0000000000000000000000000000000000 PUSH1 0x44 DUP3 ADD MSTORE SWAP1 MLOAD SWAP1 DUP2 SWAP1 SUB PUSH1 0x64 ADD SWAP1 REVERT JUMPDEST DUP7 ISZERO ISZERO PUSH2 0x336 JUMPI PUSH1 0x0 SWAP6 POP PUSH2 0x3CB JUMP JUMPDEST DUP10 DUP8 EQ ISZERO PUSH2 0x346 JUMPI DUP9 SWAP6 POP PUSH2 0x3CB JUMP JUMPDEST PUSH4 0xFFFFFFFF DUP9 AND PUSH3 0xF4240 EQ ISZERO PUSH2 0x372 JUMPI PUSH2 0x36B DUP11 PUSH2 0x20E DUP12 DUP11 PUSH4 0xFFFFFFFF PUSH2 0x466 AND JUMP JUMPDEST SWAP6 POP PUSH2 0x3CB JUMP JUMPDEST PUSH2 0x382 DUP11 DUP9 PUSH4 0xFFFFFFFF PUSH2 0x661 AND JUMP JUMPDEST SWAP3 POP PUSH2 0x393 DUP11 DUP5 PUSH3 0xF4240 DUP12 PUSH2 0x4D4 JUMP JUMPDEST SWAP1 SWAP6 POP SWAP4 POP PUSH2 0x3A8 DUP10 DUP7 PUSH4 0xFFFFFFFF PUSH2 0x466 AND JUMP JUMPDEST SWAP2 POP POP PUSH1 0xFF DUP4 AND PUSH1 0x2 EXP DUP9 MUL PUSH2 0x3C8 DUP6 PUSH2 0x20E DUP5 DUP5 PUSH4 0xFFFFFFFF PUSH2 0x661 AND JUMP JUMPDEST SWAP6 POP JUMPDEST POP POP POP POP POP SWAP5 SWAP4 POP POP POP POP JUMP JUMPDEST PUSH1 0x0 DUP1 SLOAD PUSH1 0x40 DUP1 MLOAD PUSH1 0x20 PUSH1 0x2 PUSH1 0x1 DUP6 AND ISZERO PUSH2 0x100 MUL PUSH1 0x0 NOT ADD SWAP1 SWAP5 AND SWAP4 SWAP1 SWAP4 DIV PUSH1 0x1F DUP2 ADD DUP5 SWAP1 DIV DUP5 MUL DUP3 ADD DUP5 ADD SWAP1 SWAP3 MSTORE DUP2 DUP2 MSTORE SWAP3 SWAP2 DUP4 ADD DUP3 DUP3 DUP1 ISZERO PUSH2 0x45E JUMPI DUP1 PUSH1 0x1F LT PUSH2 0x433 JUMPI PUSH2 0x100 DUP1 DUP4 SLOAD DIV MUL DUP4 MSTORE SWAP2 PUSH1 0x20 ADD SWAP2 PUSH2 0x45E JUMP JUMPDEST DUP3 ADD SWAP2 SWAP1 PUSH1 0x0 MSTORE PUSH1 0x20 PUSH1 0x0 KECCAK256 SWAP1 JUMPDEST DUP2 SLOAD DUP2 MSTORE SWAP1 PUSH1 0x1 ADD SWAP1 PUSH1 0x20 ADD DUP1 DUP4 GT PUSH2 0x441 JUMPI DUP3 SWAP1 SUB PUSH1 0x1F AND DUP3 ADD SWAP2 JUMPDEST POP POP POP POP POP DUP2 JUMP JUMPDEST PUSH1 0x0 DUP1 DUP4 ISZERO ISZERO PUSH2 0x479 JUMPI PUSH1 0x0 SWAP2 POP PUSH2 0x498 JUMP JUMPDEST POP DUP3 DUP3 MUL DUP3 DUP5 DUP3 DUP2 ISZERO ISZERO PUSH2 0x489 JUMPI INVALID JUMPDEST DIV EQ PUSH2 0x494 JUMPI PUSH1 0x0 DUP1 REVERT JUMPDEST DUP1 SWAP2 POP JUMPDEST POP SWAP3 SWAP2 POP POP JUMP JUMPDEST PUSH1 0x0 DUP1 DUP1 DUP4 GT PUSH2 0x4AE JUMPI PUSH1 0x0 DUP1 REVERT JUMPDEST DUP3 DUP5 DUP2 ISZERO ISZERO PUSH2 0x4B9 JUMPI INVALID JUMPDEST DIV SWAP5 SWAP4 POP POP POP POP JUMP JUMPDEST PUSH1 0x0 DUP3 DUP3 ADD DUP4 DUP2 LT ISZERO PUSH2 0x494 JUMPI PUSH1 0x0 DUP1 REVERT JUMPDEST PUSH1 0x0 DUP1 DUP1 DUP1 DUP1 DUP1 PUSH17 0x200000000000000000000000000000000 DUP11 LT PUSH2 0x543 JUMPI PUSH1 0x40 DUP1 MLOAD PUSH1 0xE5 PUSH1 0x2 EXP PUSH3 0x461BCD MUL DUP2 MSTORE PUSH1 0x20 PUSH1 0x4 DUP3 ADD MSTORE PUSH1 0x18 PUSH1 0x24 DUP3 ADD MSTORE PUSH32 0x626173654E2065786365656473206D61782076616C75652E0000000000000000 PUSH1 0x44 DUP3 ADD MSTORE SWAP1 MLOAD SWAP1 DUP2 SWAP1 SUB PUSH1 0x64 ADD SWAP1 REVERT JUMPDEST DUP9 DUP11 LT ISZERO PUSH2 0x59B JUMPI PUSH1 0x40 DUP1 MLOAD PUSH1 0xE5 PUSH1 0x2 EXP PUSH3 0x461BCD MUL DUP2 MSTORE PUSH1 0x20 PUSH1 0x4 DUP3 ADD MSTORE PUSH1 0x1C PUSH1 0x24 DUP3 ADD MSTORE PUSH32 0x4261736573203C203120617265206E6F7420737570706F727465642E00000000 PUSH1 0x44 DUP3 ADD MSTORE SWAP1 MLOAD SWAP1 DUP2 SWAP1 SUB PUSH1 0x64 ADD SWAP1 REVERT JUMPDEST DUP9 PUSH1 0x7F PUSH1 0x2 EXP DUP12 MUL DUP2 ISZERO ISZERO PUSH2 0x5AC JUMPI INVALID JUMPDEST DIV SWAP3 POP PUSH17 0x15BF0A8B1457695355FB8AC404E7A79E3 DUP4 LT ISZERO PUSH2 0x5D8 JUMPI PUSH2 0x5D1 DUP4 PUSH2 0x678 JUMP JUMPDEST SWAP4 POP PUSH2 0x5E4 JUMP JUMPDEST PUSH2 0x5E1 DUP4 PUSH2 0xA9D JUMP JUMPDEST SWAP4 POP JUMPDEST DUP7 PUSH4 0xFFFFFFFF AND DUP9 PUSH4 0xFFFFFFFF AND DUP6 MUL DUP2 ISZERO ISZERO PUSH2 0x5FD JUMPI INVALID JUMPDEST DIV SWAP2 POP PUSH17 0x800000000000000000000000000000000 DUP3 LT ISZERO PUSH2 0x62D JUMPI PUSH2 0x622 DUP3 PUSH2 0xB6F JUMP JUMPDEST PUSH1 0x7F SWAP6 POP SWAP6 POP PUSH2 0x654 JUMP JUMPDEST PUSH2 0x636 DUP3 PUSH2 0xF7F JUMP JUMPDEST SWAP1 POP PUSH2 0x64E PUSH1 0xFF PUSH1 0x7F DUP4 SWAP1 SUB AND PUSH1 0x2 EXP DUP4 DIV DUP3 PUSH2 0x100E JUMP JUMPDEST DUP2 SWAP6 POP SWAP6 POP JUMPDEST POP POP POP POP SWAP5 POP SWAP5 SWAP3 POP POP POP JUMP JUMPDEST PUSH1 0x0 DUP1 DUP4 DUP4 GT ISZERO PUSH2 0x671 JUMPI PUSH1 0x0 DUP1 REVERT JUMPDEST POP POP SWAP1 SUB SWAP1 JUMP JUMPDEST PUSH1 0x0 DUP1 DUP1 DUP1 DUP1 PUSH16 0xD3094C70F034DE4B96FF7D5B6F99FCD8 DUP7 LT PUSH2 0x6C7 JUMPI PUSH16 0x40000000000000000000000000000000 SWAP4 SWAP1 SWAP4 ADD SWAP3 PUSH16 0xD3094C70F034DE4B96FF7D5B6F99FCD8 PUSH1 0x7F PUSH1 0x2 EXP DUP8 MUL DIV SWAP6 POP JUMPDEST PUSH16 0xA45AF1E1F40C333B3DE1DB4DD55F29A7 DUP7 LT PUSH2 0x710 JUMPI PUSH16 0x20000000000000000000000000000000 SWAP4 SWAP1 SWAP4 ADD SWAP3 PUSH16 0xA45AF1E1F40C333B3DE1DB4DD55F29A7 PUSH1 0x7F PUSH1 0x2 EXP DUP8 MUL DIV SWAP6 POP JUMPDEST PUSH16 0x910B022DB7AE67CE76B441C27035C6A1 DUP7 LT PUSH2 0x759 JUMPI PUSH16 0x10000000000000000000000000000000 SWAP4 SWAP1 SWAP4 ADD SWAP3 PUSH16 0x910B022DB7AE67CE76B441C27035C6A1 PUSH1 0x7F PUSH1 0x2 EXP DUP8 MUL DIV SWAP6 POP JUMPDEST PUSH16 0x88415ABBE9A76BEAD8D00CF112E4D4A8 DUP7 LT PUSH2 0x7A2 JUMPI PUSH16 0x8000000000000000000000000000000 SWAP4 SWAP1 SWAP4 ADD SWAP3 PUSH16 0x88415ABBE9A76BEAD8D00CF112E4D4A8 PUSH1 0x7F PUSH1 0x2 EXP DUP8 MUL DIV SWAP6 POP JUMPDEST PUSH16 0x84102B00893F64C705E841D5D4064BD3 DUP7 LT PUSH2 0x7EB JUMPI PUSH16 0x4000000000000000000000000000000 SWAP4 SWAP1 SWAP4 ADD SWAP3 PUSH16 0x84102B00893F64C705E841D5D4064BD3 PUSH1 0x7F PUSH1 0x2 EXP DUP8 MUL DIV SWAP6 POP JUMPDEST PUSH16 0x8204055AAEF1C8BD5C3259F4822735A2 DUP7 LT PUSH2 0x834 JUMPI PUSH16 0x2000000000000000000000000000000 SWAP4 SWAP1 SWAP4 ADD SWAP3 PUSH16 0x8204055AAEF1C8BD5C3259F4822735A2 PUSH1 0x7F PUSH1 0x2 EXP DUP8 MUL DIV SWAP6 POP JUMPDEST PUSH16 0x810100AB00222D861931C15E39B44E99 DUP7 LT PUSH2 0x87D JUMPI PUSH16 0x1000000000000000000000000000000 SWAP4 SWAP1 SWAP4 ADD SWAP3 PUSH16 0x810100AB00222D861931C15E39B44E99 PUSH1 0x7F PUSH1 0x2 EXP DUP8 MUL DIV SWAP6 POP JUMPDEST PUSH16 0x808040155AABBBE9451521693554F733 DUP7 LT PUSH2 0x8C5 JUMPI PUSH15 0x800000000000000000000000000000 SWAP4 SWAP1 SWAP4 ADD SWAP3 PUSH16 0x808040155AABBBE9451521693554F733 PUSH1 0x7F PUSH1 0x2 EXP DUP8 MUL DIV SWAP6 POP JUMPDEST PUSH16 0x7FFFFFFFFFFFFFFFFFFFFFFFFFFFFFFF NOT DUP7 ADD SWAP3 POP DUP3 SWAP2 POP PUSH1 0x7F PUSH1 0x2 EXP DUP3 DUP1 MUL DIV SWAP1 POP PUSH17 0x100000000000000000000000000000000 DUP4 DUP2 SUB DUP4 MUL DIV SWAP4 SWAP1 SWAP4 ADD SWAP3 PUSH1 0x7F PUSH1 0x2 EXP DUP3 DUP3 MUL DIV SWAP2 POP PUSH17 0x200000000000000000000000000000000 PUSH16 0xAAAAAAAAAAAAAAAAAAAAAAAAAAAAAAAA DUP5 SWAP1 SUB DUP4 MUL DIV SWAP4 SWAP1 SWAP4 ADD SWAP3 PUSH1 0x7F PUSH1 0x2 EXP DUP3 DUP3 MUL DIV SWAP2 POP PUSH17 0x300000000000000000000000000000000 PUSH16 0x99999999999999999999999999999999 DUP5 SWAP1 SUB DUP4 MUL DIV SWAP4 SWAP1 SWAP4 ADD SWAP3 PUSH1 0x7F PUSH1 0x2 EXP DUP3 DUP3 MUL DIV SWAP2 POP PUSH17 0x400000000000000000000000000000000 PUSH16 0x92492492492492492492492492492492 DUP5 SWAP1 SUB DUP4 MUL DIV SWAP4 SWAP1 SWAP4 ADD SWAP3 PUSH1 0x7F PUSH1 0x2 EXP DUP3 DUP3 MUL DIV SWAP2 POP PUSH17 0x500000000000000000000000000000000 PUSH16 0x8E38E38E38E38E38E38E38E38E38E38E DUP5 SWAP1 SUB DUP4 MUL DIV SWAP4 SWAP1 SWAP4 ADD SWAP3 PUSH1 0x7F PUSH1 0x2 EXP DUP3 DUP3 MUL DIV SWAP2 POP PUSH17 0x600000000000000000000000000000000 PUSH16 0x8BA2E8BA2E8BA2E8BA2E8BA2E8BA2E8B DUP5 SWAP1 SUB DUP4 MUL DIV SWAP4 SWAP1 SWAP4 ADD SWAP3 PUSH1 0x7F PUSH1 0x2 EXP DUP3 DUP3 MUL DIV SWAP2 POP PUSH17 0x700000000000000000000000000000000 PUSH16 0x89D89D89D89D89D89D89D89D89D89D89 DUP5 SWAP1 SUB DUP4 MUL DIV SWAP4 SWAP1 SWAP4 ADD SWAP3 PUSH1 0x7F PUSH1 0x2 EXP DUP3 DUP3 MUL DIV SWAP2 POP PUSH17 0x800000000000000000000000000000000 PUSH16 0x88888888888888888888888888888888 DUP5 SWAP1 SUB DUP4 MUL DIV SWAP4 SWAP1 SWAP4 ADD SWAP6 SWAP5 POP POP POP POP POP JUMP JUMPDEST PUSH1 0x0 DUP1 DUP3 DUP2 DUP1 PUSH17 0x100000000000000000000000000000000 DUP4 LT PUSH2 0xAE1 JUMPI PUSH2 0xACA PUSH1 0x7F PUSH1 0x2 EXP DUP5 DIV PUSH2 0x1431 JUMP JUMPDEST PUSH1 0xFF DUP2 AND PUSH1 0x7F PUSH1 0x2 EXP DUP2 MUL SWAP6 POP PUSH1 0x2 EXP SWAP1 SWAP4 DIV SWAP3 SWAP2 POP JUMPDEST PUSH1 0x7F PUSH1 0x2 EXP DUP4 GT ISZERO PUSH2 0xB40 JUMPI POP PUSH1 0x7F JUMPDEST PUSH1 0x0 DUP2 PUSH1 0xFF AND GT ISZERO PUSH2 0xB40 JUMPI PUSH1 0x7F PUSH1 0x2 EXP DUP4 DUP1 MUL DIV SWAP3 POP PUSH17 0x100000000000000000000000000000000 DUP4 LT PUSH2 0xB37 JUMPI PUSH1 0xFF PUSH1 0x0 NOT DUP3 ADD AND PUSH1 0x2 SWAP1 DUP2 EXP SWAP5 SWAP1 SWAP5 ADD SWAP4 SWAP1 SWAP3 DIV SWAP2 JUMPDEST PUSH1 0x0 NOT ADD PUSH2 0xAF1 JUMP JUMPDEST PUSH16 0x5B9DE1D10BF4103D647B0955897BA80 PUSH16 0x3F80FE03F80FE03F80FE03F80FE03F8 DUP6 MUL DIV SWAP7 SWAP6 POP POP POP POP POP POP JUMP JUMPDEST PUSH1 0x0 PUSH8 0x168244FDAC78000 PUSH1 0x7F PUSH1 0x2 EXP PUSH16 0xFFFFFFFFFFFFFFFFFFFFFFFFFFFFFFF DUP5 AND DUP1 DUP1 MUL DUP3 SWAP1 DIV DUP1 DUP3 MUL DUP4 SWAP1 DIV DUP1 DUP4 MUL DUP5 SWAP1 DIV SWAP5 DUP6 MUL PUSH8 0x10E1B3BE415A0000 SWAP1 SWAP3 MUL PUSH8 0x5A0913F6B1E0000 SWAP2 SWAP1 SWAP2 MUL ADD ADD SWAP3 SWAP1 SWAP2 DUP2 DUP4 MUL DIV SWAP1 POP DUP1 PUSH7 0x4807432BC18000 MUL DUP4 ADD SWAP3 POP PUSH1 0x7F PUSH1 0x2 EXP DUP3 DUP3 MUL DUP2 ISZERO ISZERO PUSH2 0xBEA JUMPI INVALID JUMPDEST DIV SWAP1 POP DUP1 PUSH7 0xC0135DCA04000 MUL DUP4 ADD SWAP3 POP PUSH1 0x7F PUSH1 0x2 EXP DUP3 DUP3 MUL DUP2 ISZERO ISZERO PUSH2 0xC0C JUMPI INVALID JUMPDEST DIV SWAP1 POP DUP1 PUSH7 0x1B707B1CDC000 MUL DUP4 ADD SWAP3 POP PUSH1 0x7F PUSH1 0x2 EXP DUP3 DUP3 MUL DUP2 ISZERO ISZERO PUSH2 0xC2E JUMPI INVALID JUMPDEST DIV SWAP1 POP DUP1 PUSH6 0x36E0F639B800 MUL DUP4 ADD SWAP3 POP PUSH1 0x7F PUSH1 0x2 EXP DUP3 DUP3 MUL DUP2 ISZERO ISZERO PUSH2 0xC4F JUMPI INVALID JUMPDEST DIV SWAP1 POP DUP1 PUSH6 0x618FEE9F800 MUL DUP4 ADD SWAP3 POP PUSH1 0x7F PUSH1 0x2 EXP DUP3 DUP3 MUL DUP2 ISZERO ISZERO PUSH2 0xC70 JUMPI INVALID JUMPDEST DIV SWAP1 POP DUP1 PUSH5 0x9C197DCC00 MUL DUP4 ADD SWAP3 POP PUSH1 0x7F PUSH1 0x2 EXP DUP3 DUP3 MUL DUP2 ISZERO ISZERO PUSH2 0xC90 JUMPI INVALID JUMPDEST DIV SWAP1 POP DUP1 PUSH5 0xE30DCE400 MUL DUP4 ADD SWAP3 POP PUSH1 0x7F PUSH1 0x2 EXP DUP3 DUP3 MUL DUP2 ISZERO ISZERO PUSH2 0xCB0 JUMPI INVALID JUMPDEST DIV SWAP1 POP DUP1 PUSH5 0x12EBD1300 MUL DUP4 ADD SWAP3 POP PUSH1 0x7F PUSH1 0x2 EXP DUP3 DUP3 MUL DUP2 ISZERO ISZERO PUSH2 0xCD0 JUMPI INVALID JUMPDEST DIV SWAP1 POP DUP1 PUSH4 0x17499F00 MUL DUP4 ADD SWAP3 POP PUSH1 0x7F PUSH1 0x2 EXP DUP3 DUP3 MUL DUP2 ISZERO ISZERO PUSH2 0xCEF JUMPI INVALID JUMPDEST DIV SWAP1 POP DUP1 PUSH4 0x1A9D480 MUL DUP4 ADD SWAP3 POP PUSH1 0x7F PUSH1 0x2 EXP DUP3 DUP3 MUL DUP2 ISZERO ISZERO PUSH2 0xD0E JUMPI INVALID JUMPDEST DIV SWAP1 POP DUP1 PUSH3 0x1C6380 MUL DUP4 ADD SWAP3 POP PUSH1 0x7F PUSH1 0x2 EXP DUP3 DUP3 MUL DUP2 ISZERO ISZERO PUSH2 0xD2C JUMPI INVALID JUMPDEST DIV SWAP1 POP DUP1 PUSH3 0x1C638 MUL DUP4 ADD SWAP3 POP PUSH1 0x7F PUSH1 0x2 EXP DUP3 DUP3 MUL DUP2 ISZERO ISZERO PUSH2 0xD4A JUMPI INVALID JUMPDEST DIV SWAP1 POP DUP1 PUSH2 0x1AB8 MUL DUP4 ADD SWAP3 POP PUSH1 0x7F PUSH1 0x2 EXP DUP3 DUP3 MUL DUP2 ISZERO ISZERO PUSH2 0xD67 JUMPI INVALID JUMPDEST DIV SWAP1 POP DUP1 PUSH2 0x17C MUL DUP4 ADD SWAP3 POP PUSH1 0x7F PUSH1 0x2 EXP DUP3 DUP3 MUL DUP2 ISZERO ISZERO PUSH2 0xD84 JUMPI INVALID JUMPDEST DIV SWAP1 POP DUP1 PUSH1 0x14 MUL DUP4 ADD SWAP3 POP PUSH1 0x7F PUSH1 0x2 EXP DUP3 DUP3 MUL DUP2 ISZERO ISZERO PUSH2 0xDA0 JUMPI INVALID JUMPDEST PUSH8 0x21C3677C82B40000 SWAP2 SWAP1 DIV SWAP4 DUP5 ADD DIV DUP3 ADD PUSH1 0x7F PUSH1 0x2 EXP ADD SWAP3 SWAP1 POP PUSH16 0x10000000000000000000000000000000 DUP6 AND ISZERO PUSH2 0xDFD JUMPI PUSH17 0x18EBEF9EAC820AE8682B9793AC6D1E776 PUSH17 0x1C3D6A24ED82218787D624D3E5EBA95F9 DUP5 MUL DIV SWAP3 POP JUMPDEST PUSH16 0x20000000000000000000000000000000 DUP6 AND ISZERO PUSH2 0xE3F JUMPI PUSH17 0x1368B2FC6F9609FE7ACEB46AA619BAED4 PUSH17 0x18EBEF9EAC820AE8682B9793AC6D1E778 DUP5 MUL DIV SWAP3 POP JUMPDEST PUSH16 0x40000000000000000000000000000000 DUP6 AND ISZERO PUSH2 0xE80 JUMPI PUSH16 0xBC5AB1B16779BE3575BD8F0520A9F21F PUSH17 0x1368B2FC6F9609FE7ACEB46AA619BAED5 DUP5 MUL DIV SWAP3 POP JUMPDEST PUSH1 0x7F PUSH1 0x2 EXP DUP6 AND ISZERO PUSH2 0xEB4 JUMPI PUSH16 0x454AAA8EFE072E7F6DDBAB84B40A55C9 PUSH16 0xBC5AB1B16779BE3575BD8F0520A9F21E DUP5 MUL DIV SWAP3 POP JUMPDEST PUSH17 0x100000000000000000000000000000000 DUP6 AND ISZERO PUSH2 0xEF5 JUMPI PUSH16 0x960AADC109E7A3BF4578099615711EA PUSH16 0x454AAA8EFE072E7F6DDBAB84B40A55C5 DUP5 MUL DIV SWAP3 POP JUMPDEST PUSH17 0x200000000000000000000000000000000 DUP6 AND ISZERO PUSH2 0xF35 JUMPI PUSH15 0x2BF84208204F5977F9A8CF01FDCE3D PUSH16 0x960AADC109E7A3BF4578099615711D7 DUP5 MUL DIV SWAP3 POP JUMPDEST PUSH17 0x400000000000000000000000000000000 DUP6 AND ISZERO PUSH2 0xF73 JUMPI PUSH14 0x3C6AB775DD0B95B4CBEE7E65D11 PUSH15 0x2BF84208204F5977F9A8CF01FDC307 DUP5 MUL DIV SWAP3 POP JUMPDEST DUP3 SWAP4 POP JUMPDEST POP POP POP SWAP2 SWAP1 POP JUMP JUMPDEST PUSH1 0x0 PUSH1 0x20 PUSH1 0x7F DUP3 JUMPDEST DUP2 PUSH1 0xFF AND DUP4 PUSH1 0x1 ADD PUSH1 0xFF AND LT ISZERO PUSH2 0xFCC JUMPI PUSH1 0x2 PUSH1 0xFF DUP5 DUP5 ADD AND DIV SWAP1 POP DUP5 PUSH1 0x1 PUSH1 0xFF DUP4 AND PUSH1 0x80 DUP2 LT PUSH2 0xFB4 JUMPI INVALID JUMPDEST ADD SLOAD LT PUSH2 0xFC3 JUMPI DUP1 SWAP3 POP PUSH2 0xFC7 JUMP JUMPDEST DUP1 SWAP2 POP JUMPDEST PUSH2 0xF87 JUMP JUMPDEST DUP5 PUSH1 0x1 PUSH1 0xFF DUP5 AND PUSH1 0x80 DUP2 LT PUSH2 0xFDD JUMPI INVALID JUMPDEST ADD SLOAD LT PUSH2 0xFEC JUMPI DUP2 SWAP4 POP PUSH2 0xF77 JUMP JUMPDEST DUP5 PUSH1 0x1 PUSH1 0xFF DUP6 AND PUSH1 0x80 DUP2 LT PUSH2 0xFFD JUMPI INVALID JUMPDEST ADD SLOAD LT PUSH2 0x100C JUMPI DUP3 SWAP4 POP PUSH2 0xF77 JUMP JUMPDEST INVALID JUMPDEST PUSH1 0x0 DUP1 PUSH1 0x0 DUP5 SWAP2 POP PUSH1 0x0 SWAP1 POP DUP4 PUSH1 0xFF AND DUP6 DUP4 MUL SWAP1 PUSH1 0x2 EXP SWAP1 DIV SWAP2 POP DUP2 PUSH16 0x3442C4E6074A82F1797F72AC0000000 MUL DUP2 ADD SWAP1 POP DUP4 PUSH1 0xFF AND DUP6 DUP4 MUL SWAP1 PUSH1 0x2 EXP SWAP1 DIV SWAP2 POP DUP2 PUSH16 0x116B96F757C380FB287FD0E40000000 MUL DUP2 ADD SWAP1 POP DUP4 PUSH1 0xFF AND DUP6 DUP4 MUL SWAP1 PUSH1 0x2 EXP SWAP1 DIV SWAP2 POP DUP2 PUSH15 0x45AE5BDD5F0E03ECA1FF4390000000 MUL DUP2 ADD SWAP1 POP DUP4 PUSH1 0xFF AND DUP6 DUP4 MUL SWAP1 PUSH1 0x2 EXP SWAP1 DIV SWAP2 POP DUP2 PUSH15 0xDEFABF91302CD95B9FFDA50000000 MUL DUP2 ADD SWAP1 POP DUP4 PUSH1 0xFF AND DUP6 DUP4 MUL SWAP1 PUSH1 0x2 EXP SWAP1 DIV SWAP2 POP DUP2 PUSH15 0x2529CA9832B22439EFFF9B8000000 MUL DUP2 ADD SWAP1 POP DUP4 PUSH1 0xFF AND DUP6 DUP4 MUL SWAP1 PUSH1 0x2 EXP SWAP1 DIV SWAP2 POP DUP2 PUSH14 0x54F1CF12BD04E516B6DA88000000 MUL DUP2 ADD SWAP1 POP DUP4 PUSH1 0xFF AND DUP6 DUP4 MUL SWAP1 PUSH1 0x2 EXP SWAP1 DIV SWAP2 POP DUP2 PUSH14 0xA9E39E257A09CA2D6DB51000000 MUL DUP2 ADD SWAP1 POP DUP4 PUSH1 0xFF AND DUP6 DUP4 MUL SWAP1 PUSH1 0x2 EXP SWAP1 DIV SWAP2 POP DUP2 PUSH14 0x12E066E7B839FA050C309000000 MUL DUP2 ADD SWAP1 POP DUP4 PUSH1 0xFF AND DUP6 DUP4 MUL SWAP1 PUSH1 0x2 EXP SWAP1 DIV SWAP2 POP DUP2 PUSH13 0x1E33D7D926C329A1AD1A800000 MUL DUP2 ADD SWAP1 POP DUP4 PUSH1 0xFF AND DUP6 DUP4 MUL SWAP1 PUSH1 0x2 EXP SWAP1 DIV SWAP2 POP DUP2 PUSH13 0x2BEE513BDB4A6B19B5F800000 MUL DUP2 ADD SWAP1 POP DUP4 PUSH1 0xFF AND DUP6 DUP4 MUL SWAP1 PUSH1 0x2 EXP SWAP1 DIV SWAP2 POP DUP2 PUSH12 0x3A9316FA79B88ECCF2A00000 MUL DUP2 ADD SWAP1 POP DUP4 PUSH1 0xFF AND DUP6 DUP4 MUL SWAP1 PUSH1 0x2 EXP SWAP1 DIV SWAP2 POP DUP2 PUSH12 0x48177EBE1FA812375200000 MUL DUP2 ADD SWAP1 POP DUP4 PUSH1 0xFF AND DUP6 DUP4 MUL SWAP1 PUSH1 0x2 EXP SWAP1 DIV SWAP2 POP DUP2 PUSH11 0x5263FE90242DCBACF00000 MUL DUP2 ADD SWAP1 POP DUP4 PUSH1 0xFF AND DUP6 DUP4 MUL SWAP1 PUSH1 0x2 EXP SWAP1 DIV SWAP2 POP DUP2 PUSH11 0x57E22099C030D94100000 MUL DUP2 ADD SWAP1 POP DUP4 PUSH1 0xFF AND DUP6 DUP4 MUL SWAP1 PUSH1 0x2 EXP SWAP1 DIV SWAP2 POP DUP2 PUSH10 0x57E22099C030D9410000 MUL DUP2 ADD SWAP1 POP DUP4 PUSH1 0xFF AND DUP6 DUP4 MUL SWAP1 PUSH1 0x2 EXP SWAP1 DIV SWAP2 POP DUP2 PUSH10 0x52B6B54569976310000 MUL DUP2 ADD SWAP1 POP DUP4 PUSH1 0xFF AND DUP6 DUP4 MUL SWAP1 PUSH1 0x2 EXP SWAP1 DIV SWAP2 POP DUP2 PUSH9 0x4985F67696BF748000 MUL DUP2 ADD SWAP1 POP DUP4 PUSH1 0xFF AND DUP6 DUP4 MUL SWAP1 PUSH1 0x2 EXP SWAP1 DIV SWAP2 POP DUP2 PUSH9 0x3DEA12EA99E498000 MUL DUP2 ADD SWAP1 POP DUP4 PUSH1 0xFF AND DUP6 DUP4 MUL SWAP1 PUSH1 0x2 EXP SWAP1 DIV SWAP2 POP DUP2 PUSH8 0x31880F2214B6E000 MUL DUP2 ADD SWAP1 POP DUP4 PUSH1 0xFF AND DUP6 DUP4 MUL SWAP1 PUSH1 0x2 EXP SWAP1 DIV SWAP2 POP DUP2 PUSH8 0x25BCFF56EB36000 MUL DUP2 ADD SWAP1 POP DUP4 PUSH1 0xFF AND DUP6 DUP4 MUL SWAP1 PUSH1 0x2 EXP SWAP1 DIV SWAP2 POP DUP2 PUSH7 0x1B722E10AB1000 MUL DUP2 ADD SWAP1 POP DUP4 PUSH1 0xFF AND DUP6 DUP4 MUL SWAP1 PUSH1 0x2 EXP SWAP1 DIV SWAP2 POP DUP2 PUSH7 0x1317C70077000 MUL DUP2 ADD SWAP1 POP DUP4 PUSH1 0xFF AND DUP6 DUP4 MUL SWAP1 PUSH1 0x2 EXP SWAP1 DIV SWAP2 POP DUP2 PUSH6 0xCBA84AAFA00 MUL DUP2 ADD SWAP1 POP DUP4 PUSH1 0xFF AND DUP6 DUP4 MUL SWAP1 PUSH1 0x2 EXP SWAP1 DIV SWAP2 POP DUP2 PUSH5 0x82573A0A00 MUL DUP2 ADD SWAP1 POP DUP4 PUSH1 0xFF AND DUP6 DUP4 MUL SWAP1 PUSH1 0x2 EXP SWAP1 DIV SWAP2 POP DUP2 PUSH5 0x5035AD900 MUL DUP2 ADD SWAP1 POP DUP4 PUSH1 0xFF AND DUP6 DUP4 MUL SWAP1 PUSH1 0x2 EXP SWAP1 DIV SWAP2 POP DUP2 PUSH4 0x2F881B00 MUL DUP2 ADD SWAP1 POP DUP4 PUSH1 0xFF AND DUP6 DUP4 MUL SWAP1 PUSH1 0x2 EXP SWAP1 DIV SWAP2 POP DUP2 PUSH4 0x1B29340 MUL DUP2 ADD SWAP1 POP DUP4 PUSH1 0xFF AND DUP6 DUP4 MUL SWAP1 PUSH1 0x2 EXP SWAP1 DIV SWAP2 POP DUP2 PUSH3 0xEFC40 MUL DUP2 ADD SWAP1 POP DUP4 PUSH1 0xFF AND DUP6 DUP4 MUL SWAP1 PUSH1 0x2 EXP SWAP1 DIV SWAP2 POP DUP2 PUSH2 0x7FE0 MUL DUP2 ADD SWAP1 POP DUP4 PUSH1 0xFF AND DUP6 DUP4 MUL SWAP1 PUSH1 0x2 EXP SWAP1 DIV SWAP2 POP DUP2 PUSH2 0x420 MUL DUP2 ADD SWAP1 POP DUP4 PUSH1 0xFF AND DUP6 DUP4 MUL SWAP1 PUSH1 0x2 EXP SWAP1 DIV SWAP2 POP DUP2 PUSH1 0x21 MUL DUP2 ADD SWAP1 POP DUP4 PUSH1 0xFF AND DUP6 DUP4 MUL SWAP1 PUSH1 0x2 EXP SWAP1 DIV SWAP2 POP DUP2 PUSH1 0x1 MUL DUP2 ADD SWAP1 POP DUP4 PUSH1 0xFF AND PUSH1 0x1 SWAP1 PUSH1 0x2 EXP MUL DUP6 PUSH16 0x688589CC0E9505E2F2FEE5580000000 DUP4 DUP2 ISZERO ISZERO PUSH2 0x1425 JUMPI INVALID JUMPDEST DIV ADD ADD SWAP6 SWAP5 POP POP POP POP POP JUMP JUMPDEST PUSH1 0x0 DUP1 DUP3 DUP2 PUSH2 0x100 DUP3 LT ISZERO PUSH2 0x1461 JUMPI JUMPDEST PUSH1 0x1 DUP3 GT ISZERO PUSH2 0x145C JUMPI PUSH1 0x1 SWAP3 SWAP1 SWAP3 ADD SWAP2 PUSH1 0x2 SWAP1 SWAP2 DIV SWAP1 PUSH2 0x1441 JUMP JUMPDEST PUSH2 0xF73 JUMP JUMPDEST POP PUSH1 0x80 JUMPDEST PUSH1 0x0 DUP2 PUSH1 0xFF AND GT ISZERO PUSH2 0xF73 JUMPI PUSH1 0xFF DUP2 AND PUSH1 0x2 EXP DUP3 LT PUSH2 0x148E JUMPI SWAP2 DUP3 OR SWAP2 PUSH1 0xFF DUP2 AND PUSH1 0x2 EXP SWAP1 SWAP2 DIV SWAP1 JUMPDEST PUSH1 0x2 PUSH1 0xFF SWAP1 SWAP2 AND DIV PUSH2 0x1465 JUMP STOP LOG1 PUSH6 0x627A7A723058 KECCAK256 0xd9 SLT DUP2 LT KECCAK256 0x26 SWAP14 0xc1 0xd1 CODESIZE REVERT RETURN 0x27 0xec 0xf5 0xec MULMOD TIMESTAMP DUP15 0x4d EXTCODECOPY 0x4f PUSH1 0xD2 POP DUP3 0xb2 0xd PUSH12 0xDFEE3C002900000000000000 "
        },
        "gasEstimates": {
          "creation": {
            "codeDepositCost": "1063800",
            "executionCost": "infinite",
            "totalCost": "infinite"
          },
          "external": {
            "calculatePurchaseReturn(uint256,uint256,uint32,uint256)": "infinite",
            "calculateSaleReturn(uint256,uint256,uint32,uint256)": "infinite",
            "version()": "infinite"
          }
        },
        "methodIdentifiers": {
          "calculatePurchaseReturn(uint256,uint256,uint32,uint256)": "29a00e7c",
          "calculateSaleReturn(uint256,uint256,uint32,uint256)": "49f9b0f7",
          "version()": "54fd4d50"
        }
      },
      "userdoc": {
        "methods": {}
      }
    }
  }
}