{
  "_format": "hh-sol-artifact-1",
  "contractName": "ERC20Gov",
  "sourceName": "contracts/token/ERC20Gov.sol",
  "abi": [
    {
      "constant": false,
      "inputs": [
        {
          "name": "spender",
          "type": "address"
        },
        {
          "name": "value",
          "type": "uint256"
        }
      ],
      "name": "approve",
      "outputs": [
        {
          "name": "",
          "type": "bool"
        }
      ],
      "payable": false,
      "stateMutability": "nonpayable",
      "type": "function"
    },
    {
      "constant": true,
      "inputs": [],
      "name": "totalSupply",
      "outputs": [
        {
          "name": "",
          "type": "uint256"
        }
      ],
      "payable": false,
      "stateMutability": "view",
      "type": "function"
    },
    {
      "constant": false,
      "inputs": [
        {
          "name": "from",
          "type": "address"
        },
        {
          "name": "to",
          "type": "address"
        },
        {
          "name": "value",
          "type": "uint256"
        }
      ],
      "name": "transferFrom",
      "outputs": [
        {
          "name": "",
          "type": "bool"
        }
      ],
      "payable": false,
      "stateMutability": "nonpayable",
      "type": "function"
    },
    {
      "constant": false,
      "inputs": [
        {
          "name": "spender",
          "type": "address"
        },
        {
          "name": "addedValue",
          "type": "uint256"
        }
      ],
      "name": "increaseAllowance",
      "outputs": [
        {
          "name": "",
          "type": "bool"
        }
      ],
      "payable": false,
      "stateMutability": "nonpayable",
      "type": "function"
    },
    {
      "constant": true,
      "inputs": [
        {
          "name": "",
          "type": "address"
        }
      ],
      "name": "delegates",
      "outputs": [
        {
          "name": "",
          "type": "address"
        }
      ],
      "payable": false,
      "stateMutability": "view",
      "type": "function"
    },
    {
      "constant": false,
      "inputs": [
        {
          "name": "delegatee",
          "type": "address"
        }
      ],
      "name": "delegate",
      "outputs": [],
      "payable": false,
      "stateMutability": "nonpayable",
      "type": "function"
    },
    {
      "constant": true,
      "inputs": [
        {
          "name": "",
          "type": "address"
        }
      ],
      "name": "numCheckpoints",
      "outputs": [
        {
          "name": "",
          "type": "uint32"
        }
      ],
      "payable": false,
      "stateMutability": "view",
      "type": "function"
    },
    {
      "constant": true,
      "inputs": [
        {
          "name": "owner",
          "type": "address"
        }
      ],
      "name": "balanceOf",
      "outputs": [
        {
          "name": "",
          "type": "uint256"
        }
      ],
      "payable": false,
      "stateMutability": "view",
      "type": "function"
    },
    {
      "constant": true,
      "inputs": [
        {
          "name": "account",
          "type": "address"
        },
        {
          "name": "blockNumber",
          "type": "uint256"
        }
      ],
      "name": "getPriorVotes",
      "outputs": [
        {
          "name": "",
          "type": "uint256"
        }
      ],
      "payable": false,
      "stateMutability": "view",
      "type": "function"
    },
    {
      "constant": false,
      "inputs": [
        {
          "name": "spender",
          "type": "address"
        },
        {
          "name": "subtractedValue",
          "type": "uint256"
        }
      ],
      "name": "decreaseAllowance",
      "outputs": [
        {
          "name": "",
          "type": "bool"
        }
      ],
      "payable": false,
      "stateMutability": "nonpayable",
      "type": "function"
    },
    {
      "constant": false,
      "inputs": [
        {
          "name": "to",
          "type": "address"
        },
        {
          "name": "value",
          "type": "uint256"
        }
      ],
      "name": "transfer",
      "outputs": [
        {
          "name": "",
          "type": "bool"
        }
      ],
      "payable": false,
      "stateMutability": "nonpayable",
      "type": "function"
    },
    {
      "constant": true,
      "inputs": [
        {
          "name": "account",
          "type": "address"
        }
      ],
      "name": "getCurrentVotes",
      "outputs": [
        {
          "name": "",
          "type": "uint256"
        }
      ],
      "payable": false,
      "stateMutability": "view",
      "type": "function"
    },
    {
      "constant": true,
      "inputs": [
        {
          "name": "owner",
          "type": "address"
        },
        {
          "name": "spender",
          "type": "address"
        }
      ],
      "name": "allowance",
      "outputs": [
        {
          "name": "",
          "type": "uint256"
        }
      ],
      "payable": false,
      "stateMutability": "view",
      "type": "function"
    },
    {
      "constant": true,
      "inputs": [
        {
          "name": "",
          "type": "address"
        },
        {
          "name": "",
          "type": "uint32"
        }
      ],
      "name": "checkpoints",
      "outputs": [
        {
          "name": "fromBlock",
          "type": "uint32"
        },
        {
          "name": "votes",
          "type": "uint256"
        }
      ],
      "payable": false,
      "stateMutability": "view",
      "type": "function"
    },
    {
      "anonymous": false,
      "inputs": [
        {
          "indexed": true,
          "name": "delegator",
          "type": "address"
        },
        {
          "indexed": true,
          "name": "fromDelegate",
          "type": "address"
        },
        {
          "indexed": true,
          "name": "toDelegate",
          "type": "address"
        }
      ],
      "name": "DelegateChanged",
      "type": "event"
    },
    {
      "anonymous": false,
      "inputs": [
        {
          "indexed": true,
          "name": "delegate",
          "type": "address"
        },
        {
          "indexed": false,
          "name": "previousBalance",
          "type": "uint256"
        },
        {
          "indexed": false,
          "name": "newBalance",
          "type": "uint256"
        }
      ],
      "name": "DelegateVotesChanged",
      "type": "event"
    },
    {
      "anonymous": false,
      "inputs": [
        {
          "indexed": true,
          "name": "from",
          "type": "address"
        },
        {
          "indexed": true,
          "name": "to",
          "type": "address"
        },
        {
          "indexed": false,
          "name": "value",
          "type": "uint256"
        }
      ],
      "name": "Transfer",
      "type": "event"
    },
    {
      "anonymous": false,
      "inputs": [
        {
          "indexed": true,
          "name": "owner",
          "type": "address"
        },
        {
          "indexed": true,
          "name": "spender",
          "type": "address"
        },
        {
          "indexed": false,
          "name": "value",
          "type": "uint256"
        }
      ],
      "name": "Approval",
      "type": "event"
    }
  ],
  "bytecode": "0x608060405234801561001057600080fd5b50610ec0806100206000396000f3006080604052600436106100cf5763ffffffff7c0100000000000000000000000000000000000000000000000000000000600035041663095ea7b381146100d457806318160ddd1461010c57806323b872dd14610133578063395093511461015d578063587cde1e146101815780635c19a95c146101be5780636fcfff45146101e157806370a082311461021b578063782d6fe11461023c578063a457c2d714610260578063a9059cbb14610284578063b4b5ea57146102a8578063dd62ed3e146102c9578063f1127ed8146102f0575b600080fd5b3480156100e057600080fd5b506100f8600160a060020a036004351660243561033a565b604080519115158252519081900360200190f35b34801561011857600080fd5b506101216103b8565b60408051918252519081900360200190f35b34801561013f57600080fd5b506100f8600160a060020a03600435811690602435166044356103be565b34801561016957600080fd5b506100f8600160a060020a036004351660243561045b565b34801561018d57600080fd5b506101a2600160a060020a036004351661050b565b60408051600160a060020a039092168252519081900360200190f35b3480156101ca57600080fd5b506101df600160a060020a0360043516610526565b005b3480156101ed57600080fd5b50610202600160a060020a0360043516610533565b6040805163ffffffff9092168252519081900360200190f35b34801561022757600080fd5b50610121600160a060020a036004351661054b565b34801561024857600080fd5b50610121600160a060020a0360043516602435610566565b34801561026c57600080fd5b506100f8600160a060020a03600435166024356107ce565b34801561029057600080fd5b506100f8600160a060020a0360043516602435610819565b3480156102b457600080fd5b50610121600160a060020a036004351661082f565b3480156102d557600080fd5b50610121600160a060020a0360043581169060243516610895565b3480156102fc57600080fd5b5061031a600160a060020a036004351663ffffffff602435166108c0565b6040805163ffffffff909316835260208301919091528051918290030190f35b6000600160a060020a038316151561035157600080fd5b336000818152600160209081526040808320600160a060020a03881680855290835292819020869055805186815290519293927f8c5be1e5ebec7d5bd14f71427d1e84f3dd0314c0f7b2291e5b200ac8c7c3b925929181900390910190a350600192915050565b60055490565b600160a060020a03831660009081526001602090815260408083203384529091528120548211156103ee57600080fd5b600160a060020a0384166000908152600160209081526040808320338452909152902054610422908363ffffffff6108ed16565b600160a060020a0385166000908152600160209081526040808320338452909152902055610451848484610904565b5060019392505050565b6000600160a060020a038316151561047257600080fd5b336000908152600160209081526040808320600160a060020a03871684529091529020546104a6908363ffffffff610a2816565b336000818152600160209081526040808320600160a060020a0389168085529083529281902085905580519485525191937f8c5be1e5ebec7d5bd14f71427d1e84f3dd0314c0f7b2291e5b200ac8c7c3b925929081900390910190a350600192915050565b600260205260009081526040902054600160a060020a031681565b6105303382610a3a565b50565b60046020526000908152604090205463ffffffff1681565b600160a060020a031660009081526020819052604090205490565b6000806000806000610576610e7d565b43871061060a57604080517f08c379a000000000000000000000000000000000000000000000000000000000815260206004820152602b60248201527f4552433230476f763a3a6765745072696f72566f7465733a206e6f742079657460448201527f2064657465726d696e6564000000000000000000000000000000000000000000606482015290519081900360840190fd5b600160a060020a03881660009081526004602052604090205463ffffffff16945084151561063b57600095506107c3565b600160a060020a038816600090815260036020908152604080832063ffffffff6000198a01811685529252909120541687106106a957600160a060020a038816600090815260036020908152604080832063ffffffff6000198a0116845290915290206001015495506107c3565b600160a060020a038816600090815260036020908152604080832083805290915290205463ffffffff168710156106e357600095506107c3565b600093506001850392505b8363ffffffff168363ffffffff16111561079357600263ffffffff85850316600160a060020a038a16600090815260036020908152604080832094909304870363ffffffff81811684529482529183902083518085019094528054909416808452600190940154908301529350915087141561077057806020015195506107c3565b805163ffffffff168711156107875781935061078e565b6001820392505b6106ee565b600160a060020a038816600090815260036020908152604080832063ffffffff8816845290915290206001015495505b505050505092915050565b6000600160a060020a03831615156107e557600080fd5b336000908152600160209081526040808320600160a060020a03871684529091529020546104a6908363ffffffff6108ed16565b6000610826338484610904565b50600192915050565b600160a060020a03811660009081526004602052604081205463ffffffff1681811161085c57600061088e565b600160a060020a038316600090815260036020908152604080832063ffffffff60001986011684529091529020600101545b9392505050565b600160a060020a03918216600090815260016020908152604080832093909416825291909152205490565b60036020908152600092835260408084209091529082529020805460019091015463ffffffff9091169082565b600080838311156108fd57600080fd5b5050900390565b600160a060020a03831660009081526020819052604090205481111561092957600080fd5b600160a060020a038216151561093e57600080fd5b600160a060020a038316600090815260208190526040902054610967908263ffffffff6108ed16565b600160a060020a03808516600090815260208190526040808220939093559084168152205461099c908263ffffffff610a2816565b600160a060020a038084166000818152602081815260409182902094909455805185815290519193928716927fddf252ad1be2c89b69c2b068fc378daa952ba7f163c4a11628f55a4df523b3ef92918290030190a3600160a060020a03808416600090815260026020526040808220548584168352912054610a2392918216911683610ac6565b505050565b60008282018381101561088e57600080fd5b600160a060020a0380831660008181526002602081815260408084208054858452828620549490935287871673ffffffffffffffffffffffffffffffffffffffff198416811790915590519190951694919391928592917f3134e8a2e6d97e929a7e54011ea5485d7d196dd5f0ba4d4ef95803e8e3fc257f9190a4610ac0828483610ac6565b50505050565b60008060008060008087600160a060020a031689600160a060020a031614158015610af15750600087115b15610c1457600160a060020a03891615610b8557600160a060020a03891660009081526004602052604081205463ffffffff1696508611610b33576000610b65565b600160a060020a038916600090815260036020908152604080832063ffffffff6000198b011684529091529020600101545b9450610b77858863ffffffff6108ed16565b9350610b8589878787610c1f565b600160a060020a03881615610c1457600160a060020a03881660009081526004602052604081205463ffffffff1693508311610bc2576000610bf4565b600160a060020a038816600090815260036020908152604080832063ffffffff60001988011684529091529020600101545b9150610c06828863ffffffff610a2816565b9050610c1488848484610c1f565b505050505050505050565b6000610c8743606060405190810160405280603881526020017f4552433230476f763a3a5f7772697465436865636b706f696e743a20626c6f6381526020017f6b206e756d626572206578636565647320333220626974730000000000000000815250610dc8565b905060008463ffffffff16118015610cd05750600160a060020a038516600090815260036020908152604080832063ffffffff6000198901811685529252909120548282169116145b15610d0d57600160a060020a038516600090815260036020908152604080832063ffffffff60001989011684529091529020600101829055610d7e565b60408051808201825263ffffffff80841682526020808301868152600160a060020a038a166000818152600384528681208b8616825284528681209551865490861663ffffffff19918216178755925160019687015590815260049092529390208054928801909116919092161790555b60408051848152602081018490528151600160a060020a038816927fdec2bacdd2f05b59de34da9b523dff8be42e5e38e818c82fdb0bae774387a724928290030190a25050505050565b6000816401000000008410610e75576040517f08c379a00000000000000000000000000000000000000000000000000000000081526004018080602001828103825283818151815260200191508051906020019080838360005b83811015610e3a578181015183820152602001610e22565b50505050905090810190601f168015610e675780820380516001836020036101000a031916815260200191505b509250505060405180910390fd5b509192915050565b6040805180820190915260008082526020820152905600a165627a7a72305820b1ab60a51c8c5a59575bd356183b6b52d8b11e42f7afaabcdb90c57d113b60190029",
  "linkReferences": {},
  "deployedLinkReferences": {}
}