{
  "_format": "hh-sol-artifact-1",
  "contractName": "TreasuryVester",
  "sourceName": "contracts/governance/TreasuryVester.sol",
  "abi": [
    {
      "inputs": [
        {
          "internalType": "address",
          "name": "token_",
          "type": "address"
        },
        {
          "internalType": "address",
          "name": "recipient_",
          "type": "address"
        },
        {
          "internalType": "uint256",
          "name": "vestingAmount_",
          "type": "uint256"
        },
        {
          "internalType": "uint256",
          "name": "vestingBegin_",
          "type": "uint256"
        },
        {
          "internalType": "uint256",
          "name": "vestingCliff_",
          "type": "uint256"
        },
        {
          "internalType": "uint256",
          "name": "vestingEnd_",
          "type": "uint256"
        }
      ],
      "payable": false,
      "stateMutability": "nonpayable",
      "type": "constructor"
    },
    {
      "constant": false,
      "inputs": [],
      "name": "claim",
      "outputs": [],
      "payable": false,
      "stateMutability": "nonpayable",
      "type": "function"
    },
    {
      "constant": true,
      "inputs": [],
      "name": "lastUpdate",
      "outputs": [
        {
          "internalType": "uint256",
          "name": "",
          "type": "uint256"
        }
      ],
      "payable": false,
      "stateMutability": "view",
      "type": "function"
    },
    {
      "constant": true,
      "inputs": [],
      "name": "recipient",
      "outputs": [
        {
          "internalType": "address",
          "name": "",
          "type": "address"
        }
      ],
      "payable": false,
      "stateMutability": "view",
      "type": "function"
    },
    {
      "constant": false,
      "inputs": [
        {
          "internalType": "address",
          "name": "recipient_",
          "type": "address"
        }
      ],
      "name": "setRecipient",
      "outputs": [],
      "payable": false,
      "stateMutability": "nonpayable",
      "type": "function"
    },
    {
      "constant": true,
      "inputs": [],
      "name": "token",
      "outputs": [
        {
          "internalType": "address",
          "name": "",
          "type": "address"
        }
      ],
      "payable": false,
      "stateMutability": "view",
      "type": "function"
    },
    {
      "constant": true,
      "inputs": [],
      "name": "vestingAmount",
      "outputs": [
        {
          "internalType": "uint256",
          "name": "",
          "type": "uint256"
        }
      ],
      "payable": false,
      "stateMutability": "view",
      "type": "function"
    },
    {
      "constant": true,
      "inputs": [],
      "name": "vestingBegin",
      "outputs": [
        {
          "internalType": "uint256",
          "name": "",
          "type": "uint256"
        }
      ],
      "payable": false,
      "stateMutability": "view",
      "type": "function"
    },
    {
      "constant": true,
      "inputs": [],
      "name": "vestingCliff",
      "outputs": [
        {
          "internalType": "uint256",
          "name": "",
          "type": "uint256"
        }
      ],
      "payable": false,
      "stateMutability": "view",
      "type": "function"
    },
    {
      "constant": true,
      "inputs": [],
      "name": "vestingEnd",
      "outputs": [
        {
          "internalType": "uint256",
          "name": "",
          "type": "uint256"
        }
      ],
      "payable": false,
      "stateMutability": "view",
      "type": "function"
    }
  ],
  "bytecode": "0x608060405234801561001057600080fd5b5060405161062d38038061062d833981810160405260c081101561003357600080fd5b508051602082015160408301516060840151608085015160a0909501519394929391929091428310156100975760405162461bcd60e51b815260040180806020018281038252603481526020018061059d6034913960400191505060405180910390fd5b828210156100d65760405162461bcd60e51b815260040180806020018281038252602f8152602001806105d1602f913960400191505060405180910390fd5b8181116101145760405162461bcd60e51b815260040180806020018281038252602d815260200180610600602d913960400191505060405180910390fd5b600080546001600160a01b039788166001600160a01b031991821617909155600180549690971695169490941790945560029190915560038190556004929092556005556006556104338061016a6000396000f3fe608060405234801561001057600080fd5b50600436106100925760003560e01c806384a1931f1161006657806384a1931f14610105578063c04637111461010d578063e29bc68b14610115578063f3640e741461011d578063fc0c546a1461012557610092565b8062728f76146100975780633bbed4a0146100b15780634e71d92d146100d957806366d003ac146100e1575b600080fd5b61009f61012d565b60408051918252519081900360200190f35b6100d7600480360360208110156100c757600080fd5b50356001600160a01b0316610133565b005b6100d761019e565b6100e9610329565b604080516001600160a01b039092168252519081900360200190f35b61009f610338565b61009f61033e565b61009f610344565b61009f61034a565b6100e9610350565b60025481565b6001546001600160a01b0316331461017c5760405162461bcd60e51b815260040180806020018281038252602a8152602001806103b2602a913960400191505060405180910390fd5b600180546001600160a01b0319166001600160a01b0392909216919091179055565b6004544210156101df5760405162461bcd60e51b81526004018080602001828103825260238152602001806103dc6023913960400191505060405180910390fd5b6000600554421061026857600054604080516370a0823160e01b815230600482015290516001600160a01b03909216916370a0823191602480820192602092909190829003018186803b15801561023557600080fd5b505afa158015610249573d6000803e3d6000fd5b505050506040513d602081101561025f57600080fd5b5051905061029e565b6102976003546005540361028b600654420360025461035f90919063ffffffff16565b9063ffffffff61038f16565b4260065590505b600080546001546040805163a9059cbb60e01b81526001600160a01b039283166004820152602481018690529051919092169263a9059cbb92604480820193602093909283900390910190829087803b1580156102fa57600080fd5b505af115801561030e573d6000803e3d6000fd5b505050506040513d602081101561032457600080fd5b505050565b6001546001600160a01b031681565b60055481565b60065481565b60035481565b60045481565b6000546001600160a01b031681565b60008261036e57506000610389565b8282028284828161037b57fe5b041461038657600080fd5b90505b92915050565b600080821161039d57600080fd5b60008284816103a857fe5b0494935050505056fe54726561737572795665737465723a3a736574526563697069656e743a20756e617574686f72697a656454726561737572795665737465723a3a636c61696d3a206e6f742074696d6520796574a265627a7a72315820ed8d756c7ac134c345bf4663d2bbf20d449c5031b075ad6755f479d31150f99464736f6c6343000510003254726561737572795665737465723a3a636f6e7374727563746f723a2076657374696e6720626567696e20746f6f206561726c7954726561737572795665737465723a3a636f6e7374727563746f723a20636c69666620697320746f6f206561726c7954726561737572795665737465723a3a636f6e7374727563746f723a20656e6420697320746f6f206561726c79",
  "linkReferences": {},
  "deployedLinkReferences": {}
}