{
  "_format": "hh-sol-artifact-1",
  "contractName": "GovernorAlpha",
  "sourceName": "contracts/governance/GovernorAlpha.sol",
  "abi": [
    {
      "inputs": [
        {
          "internalType": "string",
          "name": "name_",
          "type": "string"
        },
        {
          "internalType": "address",
          "name": "timelock_",
          "type": "address"
        },
        {
          "internalType": "address",
          "name": "token_",
          "type": "address"
        }
      ],
      "payable": false,
      "stateMutability": "nonpayable",
      "type": "constructor"
    },
    {
      "anonymous": false,
      "inputs": [
        {
          "indexed": false,
          "internalType": "uint256",
          "name": "id",
          "type": "uint256"
        }
      ],
      "name": "ProposalCanceled",
      "type": "event"
    },
    {
      "anonymous": false,
      "inputs": [
        {
          "indexed": false,
          "internalType": "uint256",
          "name": "id",
          "type": "uint256"
        },
        {
          "indexed": false,
          "internalType": "address",
          "name": "proposer",
          "type": "address"
        },
        {
          "indexed": false,
          "internalType": "address[]",
          "name": "targets",
          "type": "address[]"
        },
        {
          "indexed": false,
          "internalType": "uint256[]",
          "name": "values",
          "type": "uint256[]"
        },
        {
          "indexed": false,
          "internalType": "string[]",
          "name": "signatures",
          "type": "string[]"
        },
        {
          "indexed": false,
          "internalType": "bytes[]",
          "name": "calldatas",
          "type": "bytes[]"
        },
        {
          "indexed": false,
          "internalType": "uint256",
          "name": "startBlock",
          "type": "uint256"
        },
        {
          "indexed": false,
          "internalType": "uint256",
          "name": "endBlock",
          "type": "uint256"
        },
        {
          "indexed": false,
          "internalType": "string",
          "name": "description",
          "type": "string"
        }
      ],
      "name": "ProposalCreated",
      "type": "event"
    },
    {
      "anonymous": false,
      "inputs": [
        {
          "indexed": false,
          "internalType": "uint256",
          "name": "id",
          "type": "uint256"
        }
      ],
      "name": "ProposalExecuted",
      "type": "event"
    },
    {
      "anonymous": false,
      "inputs": [
        {
          "indexed": false,
          "internalType": "uint256",
          "name": "id",
          "type": "uint256"
        },
        {
          "indexed": false,
          "internalType": "uint256",
          "name": "eta",
          "type": "uint256"
        }
      ],
      "name": "ProposalQueued",
      "type": "event"
    },
    {
      "anonymous": false,
      "inputs": [
        {
          "indexed": false,
          "internalType": "address",
          "name": "voter",
          "type": "address"
        },
        {
          "indexed": false,
          "internalType": "uint256",
          "name": "proposalId",
          "type": "uint256"
        },
        {
          "indexed": false,
          "internalType": "bool",
          "name": "support",
          "type": "bool"
        },
        {
          "indexed": false,
          "internalType": "uint256",
          "name": "votes",
          "type": "uint256"
        }
      ],
      "name": "VoteCast",
      "type": "event"
    },
    {
      "constant": true,
      "inputs": [],
      "name": "BALLOT_TYPEHASH",
      "outputs": [
        {
          "internalType": "bytes32",
          "name": "",
          "type": "bytes32"
        }
      ],
      "payable": false,
      "stateMutability": "view",
      "type": "function"
    },
    {
      "constant": true,
      "inputs": [],
      "name": "DOMAIN_TYPEHASH",
      "outputs": [
        {
          "internalType": "bytes32",
          "name": "",
          "type": "bytes32"
        }
      ],
      "payable": false,
      "stateMutability": "view",
      "type": "function"
    },
    {
      "constant": false,
      "inputs": [],
      "name": "acceptAdmin",
      "outputs": [],
      "payable": false,
      "stateMutability": "nonpayable",
      "type": "function"
    },
    {
      "constant": false,
      "inputs": [
        {
          "internalType": "uint256",
          "name": "proposalId",
          "type": "uint256"
        }
      ],
      "name": "cancel",
      "outputs": [],
      "payable": false,
      "stateMutability": "nonpayable",
      "type": "function"
    },
    {
      "constant": false,
      "inputs": [
        {
          "internalType": "uint256",
          "name": "proposalId",
          "type": "uint256"
        },
        {
          "internalType": "bool",
          "name": "support",
          "type": "bool"
        }
      ],
      "name": "castVote",
      "outputs": [],
      "payable": false,
      "stateMutability": "nonpayable",
      "type": "function"
    },
    {
      "constant": false,
      "inputs": [
        {
          "internalType": "uint256",
          "name": "proposalId",
          "type": "uint256"
        },
        {
          "internalType": "bool",
          "name": "support",
          "type": "bool"
        },
        {
          "internalType": "uint8",
          "name": "v",
          "type": "uint8"
        },
        {
          "internalType": "bytes32",
          "name": "r",
          "type": "bytes32"
        },
        {
          "internalType": "bytes32",
          "name": "s",
          "type": "bytes32"
        }
      ],
      "name": "castVoteBySig",
      "outputs": [],
      "payable": false,
      "stateMutability": "nonpayable",
      "type": "function"
    },
    {
      "constant": false,
      "inputs": [
        {
          "internalType": "uint256",
          "name": "proposalId",
          "type": "uint256"
        }
      ],
      "name": "execute",
      "outputs": [],
      "payable": true,
      "stateMutability": "payable",
      "type": "function"
    },
    {
      "constant": true,
      "inputs": [
        {
          "internalType": "uint256",
          "name": "proposalId",
          "type": "uint256"
        }
      ],
      "name": "getActions",
      "outputs": [
        {
          "internalType": "address[]",
          "name": "targets",
          "type": "address[]"
        },
        {
          "internalType": "uint256[]",
          "name": "values",
          "type": "uint256[]"
        },
        {
          "internalType": "string[]",
          "name": "signatures",
          "type": "string[]"
        },
        {
          "internalType": "bytes[]",
          "name": "calldatas",
          "type": "bytes[]"
        }
      ],
      "payable": false,
      "stateMutability": "view",
      "type": "function"
    },
    {
      "constant": true,
      "inputs": [
        {
          "internalType": "uint256",
          "name": "proposalId",
          "type": "uint256"
        },
        {
          "internalType": "address",
          "name": "voter",
          "type": "address"
        }
      ],
      "name": "getReceipt",
      "outputs": [
        {
          "components": [
            {
              "internalType": "bool",
              "name": "hasVoted",
              "type": "bool"
            },
            {
              "internalType": "bool",
              "name": "support",
              "type": "bool"
            },
            {
              "internalType": "uint256",
              "name": "votes",
              "type": "uint256"
            }
          ],
          "internalType": "struct GovernorAlpha.Receipt",
          "name": "",
          "type": "tuple"
        }
      ],
      "payable": false,
      "stateMutability": "view",
      "type": "function"
    },
    {
      "constant": true,
      "inputs": [
        {
          "internalType": "address",
          "name": "",
          "type": "address"
        }
      ],
      "name": "latestProposalIds",
      "outputs": [
        {
          "internalType": "uint256",
          "name": "",
          "type": "uint256"
        }
      ],
      "payable": false,
      "stateMutability": "view",
      "type": "function"
    },
    {
      "constant": true,
      "inputs": [],
      "name": "minimumQuorum",
      "outputs": [
        {
          "internalType": "uint256",
          "name": "",
          "type": "uint256"
        }
      ],
      "payable": false,
      "stateMutability": "pure",
      "type": "function"
    },
    {
      "constant": true,
      "inputs": [],
      "name": "minimumThreshold",
      "outputs": [
        {
          "internalType": "uint256",
          "name": "",
          "type": "uint256"
        }
      ],
      "payable": false,
      "stateMutability": "pure",
      "type": "function"
    },
    {
      "constant": true,
      "inputs": [],
      "name": "name",
      "outputs": [
        {
          "internalType": "string",
          "name": "",
          "type": "string"
        }
      ],
      "payable": false,
      "stateMutability": "view",
      "type": "function"
    },
    {
      "constant": true,
      "inputs": [],
      "name": "proposalCount",
      "outputs": [
        {
          "internalType": "uint256",
          "name": "",
          "type": "uint256"
        }
      ],
      "payable": false,
      "stateMutability": "view",
      "type": "function"
    },
    {
      "constant": true,
      "inputs": [],
      "name": "proposalMaxOperations",
      "outputs": [
        {
          "internalType": "uint256",
          "name": "",
          "type": "uint256"
        }
      ],
      "payable": false,
      "stateMutability": "pure",
      "type": "function"
    },
    {
      "constant": true,
      "inputs": [],
      "name": "proposalThreshold",
      "outputs": [
        {
          "internalType": "uint256",
          "name": "",
          "type": "uint256"
        }
      ],
      "payable": false,
      "stateMutability": "view",
      "type": "function"
    },
    {
      "constant": true,
      "inputs": [
        {
          "internalType": "uint256",
          "name": "",
          "type": "uint256"
        }
      ],
      "name": "proposals",
      "outputs": [
        {
          "internalType": "uint256",
          "name": "id",
          "type": "uint256"
        },
        {
          "internalType": "address",
          "name": "proposer",
          "type": "address"
        },
        {
          "internalType": "uint256",
          "name": "eta",
          "type": "uint256"
        },
        {
          "internalType": "uint256",
          "name": "startBlock",
          "type": "uint256"
        },
        {
          "internalType": "uint256",
          "name": "endBlock",
          "type": "uint256"
        },
        {
          "internalType": "uint256",
          "name": "forVotes",
          "type": "uint256"
        },
        {
          "internalType": "uint256",
          "name": "againstVotes",
          "type": "uint256"
        },
        {
          "internalType": "bool",
          "name": "canceled",
          "type": "bool"
        },
        {
          "internalType": "bool",
          "name": "executed",
          "type": "bool"
        }
      ],
      "payable": false,
      "stateMutability": "view",
      "type": "function"
    },
    {
      "constant": false,
      "inputs": [
        {
          "internalType": "address[]",
          "name": "targets",
          "type": "address[]"
        },
        {
          "internalType": "uint256[]",
          "name": "values",
          "type": "uint256[]"
        },
        {
          "internalType": "string[]",
          "name": "signatures",
          "type": "string[]"
        },
        {
          "internalType": "bytes[]",
          "name": "calldatas",
          "type": "bytes[]"
        },
        {
          "internalType": "string",
          "name": "description",
          "type": "string"
        }
      ],
      "name": "propose",
      "outputs": [
        {
          "internalType": "uint256",
          "name": "",
          "type": "uint256"
        }
      ],
      "payable": false,
      "stateMutability": "nonpayable",
      "type": "function"
    },
    {
      "constant": false,
      "inputs": [
        {
          "internalType": "uint256",
          "name": "proposalId",
          "type": "uint256"
        }
      ],
      "name": "queue",
      "outputs": [],
      "payable": false,
      "stateMutability": "nonpayable",
      "type": "function"
    },
    {
      "constant": true,
      "inputs": [],
      "name": "quorumVotes",
      "outputs": [
        {
          "internalType": "uint256",
          "name": "",
          "type": "uint256"
        }
      ],
      "payable": false,
      "stateMutability": "view",
      "type": "function"
    },
    {
      "constant": true,
      "inputs": [
        {
          "internalType": "uint256",
          "name": "proposalId",
          "type": "uint256"
        }
      ],
      "name": "state",
      "outputs": [
        {
          "internalType": "enum GovernorAlpha.ProposalState",
          "name": "",
          "type": "uint8"
        }
      ],
      "payable": false,
      "stateMutability": "view",
      "type": "function"
    },
    {
      "constant": true,
      "inputs": [],
      "name": "timelock",
      "outputs": [
        {
          "internalType": "contract TimelockInterface",
          "name": "",
          "type": "address"
        }
      ],
      "payable": false,
      "stateMutability": "view",
      "type": "function"
    },
    {
      "constant": true,
      "inputs": [],
      "name": "token",
      "outputs": [
        {
          "internalType": "contract TokenInterface",
          "name": "",
          "type": "address"
        }
      ],
      "payable": false,
      "stateMutability": "view",
      "type": "function"
    },
    {
      "constant": true,
      "inputs": [],
      "name": "votingDelay",
      "outputs": [
        {
          "internalType": "uint256",
          "name": "",
          "type": "uint256"
        }
      ],
      "payable": false,
      "stateMutability": "pure",
      "type": "function"
    },
    {
      "constant": true,
      "inputs": [],
      "name": "votingPeriod",
      "outputs": [
        {
          "internalType": "uint256",
          "name": "",
          "type": "uint256"
        }
      ],
      "payable": false,
      "stateMutability": "pure",
      "type": "function"
    }
  ],
  "bytecode": "0x60806040523480156200001157600080fd5b50604051620036f0380380620036f0833981016040819052620000349162000197565b600180546001600160a01b038085166001600160a01b031992831617909255600280549284169290911691909117905582516200007990600090602086019062000083565b50505050620002b0565b828054600181600116156101000203166002900490600052602060002090601f016020900481019282601f10620000c657805160ff1916838001178555620000f6565b82800160010185558215620000f6579182015b82811115620000f6578251825591602001919060010190620000d9565b506200010492915062000108565b5090565b6200012591905b808211156200010457600081556001016200010f565b90565b8051620001358162000296565b92915050565b600082601f8301126200014d57600080fd5b8151620001646200015e8262000229565b62000202565b915080825260208301602083018583830111156200018157600080fd5b6200018e83828462000263565b50505092915050565b600080600060608486031215620001ad57600080fd5b83516001600160401b03811115620001c457600080fd5b620001d2868287016200013b565b9350506020620001e58682870162000128565b9250506040620001f88682870162000128565b9150509250925092565b6040518181016001600160401b03811182821017156200022157600080fd5b604052919050565b60006001600160401b038211156200024057600080fd5b506020601f91909101601f19160190565b60006001600160a01b03821662000135565b60005b838110156200028057818101518382015260200162000266565b8381111562000290576000848401525b50505050565b620002a18162000251565b8114620002ad57600080fd5b50565b61343080620002c06000396000f3fe6080604052600436106101665760003560e01c80634634c61f116100d1578063da35c6641161008a578063deaaa7cc11610064578063deaaa7cc146103eb578063e23a9a5214610400578063fc0c546a1461042d578063fe0d94c11461044257610166565b8063da35c66414610396578063da95691a146103ab578063ddf0b009146103cb57610166565b80634634c61f1461030057806375da30d0146103205780637bdbe4d0146103355780638160f0b51461034a578063b58131b01461035f578063d33219b41461037457610166565b806320606b701161012357806320606b701461024457806324bc1a6414610259578063328dd9821461026e5780633932abb11461029e5780633e4f49e6146102b357806340e58ee5146102e057610166565b8063013cf08b1461016b57806302a251a3146101a957806306fdde03146101cb5780630e18b681146101ed57806315373e3d1461020457806317977c6114610224575b600080fd5b34801561017757600080fd5b5061018b61018636600461233d565b610455565b6040516101a099989796959493929190613206565b60405180910390f35b3480156101b557600080fd5b506101be6104ae565b6040516101a09190612fa0565b3480156101d757600080fd5b506101e06104b5565b6040516101a0919061304f565b3480156101f957600080fd5b50610202610543565b005b34801561021057600080fd5b5061020261021f366004612395565b6105ad565b34801561023057600080fd5b506101be61023f3660046121ba565b6105bc565b34801561025057600080fd5b506101be6105ce565b34801561026557600080fd5b506101be6105e5565b34801561027a57600080fd5b5061028e61028936600461233d565b6106b5565b6040516101a09493929190612f53565b3480156102aa57600080fd5b506101be610944565b3480156102bf57600080fd5b506102d36102ce36600461233d565b610949565b6040516101a09190613041565b3480156102ec57600080fd5b506102026102fb36600461233d565b610ada565b34801561030c57600080fd5b5061020261031b3660046123c5565b610d2b565b34801561032c57600080fd5b506101be610e88565b34801561034157600080fd5b506101be610e96565b34801561035657600080fd5b506101be610e9b565b34801561036b57600080fd5b506101be610ea9565b34801561038057600080fd5b50610389610f4f565b6040516101a09190613033565b3480156103a257600080fd5b506101be610f5e565b3480156103b757600080fd5b506101be6103c63660046121e0565b610f64565b3480156103d757600080fd5b506102026103e636600461233d565b611397565b3480156103f757600080fd5b506101be611647565b34801561040c57600080fd5b5061042061041b36600461235b565b611653565b6040516101a09190613150565b34801561043957600080fd5b506103896116b7565b61020261045036600461233d565b6116c6565b6004602052600090815260409020805460018201546002830154600784015460088501546009860154600a870154600b9097015495966001600160a01b0390951695939492939192909160ff8082169161010090041689565b619d805b90565b6000805460408051602060026001851615610100026000190190941693909304601f8101849004840282018401909252818152929183018282801561053b5780601f106105105761010080835404028352916020019161053b565b820191906000526020600020905b81548152906001019060200180831161051e57829003601f168201915b505050505081565b600160009054906101000a90046001600160a01b03166001600160a01b0316630e18b6816040518163ffffffff1660e01b8152600401600060405180830381600087803b15801561059357600080fd5b505af11580156105a7573d6000803e3d6000fd5b50505050565b6105b833838361188b565b5050565b60056020526000908152604090205481565b6040516105da90612e44565b604051809103902081565b6000806106906064610684600a600260009054906101000a90046001600160a01b03166001600160a01b03166318160ddd6040518163ffffffff1660e01b815260040160206040518083038186803b15801561064057600080fd5b505afa158015610654573d6000803e3d6000fd5b505050506040513d601f19601f8201168201806040525061067891908101906122ea565b9063ffffffff611a3516565b9063ffffffff611a6316565b905061069a610e9b565b81116106ad576106a8610e9b565b6106af565b805b91505090565b6060806060806000600460008781526020019081526020016000209050806003018160040182600501836006018380548060200260200160405190810160405280929190818152602001828054801561073757602002820191906000526020600020905b81546001600160a01b03168152600190910190602001808311610719575b505050505093508280548060200260200160405190810160405280929190818152602001828054801561078957602002820191906000526020600020905b815481526020019060010190808311610775575b5050505050925081805480602002602001604051908101604052809291908181526020016000905b8282101561085c5760008481526020908190208301805460408051601f60026000196101006001871615020190941693909304928301859004850281018501909152818152928301828280156108485780601f1061081d57610100808354040283529160200191610848565b820191906000526020600020905b81548152906001019060200180831161082b57829003601f168201915b5050505050815260200190600101906107b1565b50505050915080805480602002602001604051908101604052809291908181526020016000905b8282101561092e5760008481526020908190208301805460408051601f600260001961010060018716150201909416939093049283018590048502810185019091528181529283018282801561091a5780601f106108ef5761010080835404028352916020019161091a565b820191906000526020600020905b8154815290600101906020018083116108fd57829003601f168201915b505050505081526020019060010190610883565b5050505090509450945094509450509193509193565b600190565b6000816003541015801561095d5750600082115b6109825760405162461bcd60e51b815260040161097990613080565b60405180910390fd5b6000828152600460205260409020600b81015460ff16156109a7576002915050610ad5565b806007015443116109bc576000915050610ad5565b806008015443116109d1576001915050610ad5565b80600a015481600901541115806109f257506109eb6105e5565b8160090154105b15610a01576003915050610ad5565b6002810154610a14576004915050610ad5565b600b810154610100900460ff1615610a30576007915050610ad5565b600154604080516360d143f160e11b81529051610abf926001600160a01b03169163c1a287e2916004808301926020929190829003018186803b158015610a7657600080fd5b505afa158015610a8a573d6000803e3d6000fd5b505050506040513d601f19601f82011682018060405250610aae91908101906122ea565b60028301549063ffffffff611a8516565b4210610acf576006915050610ad5565b60059150505b919050565b6000610ae582610949565b90506007816007811115610af557fe5b1415610b135760405162461bcd60e51b815260040161097990613130565b6000828152600460205260409020610b29610ea9565b6002546001838101546001600160a01b039283169263782d6fe192911690610b5890439063ffffffff611a9716565b6040518363ffffffff1660e01b8152600401610b75929190612e75565b60206040518083038186803b158015610b8d57600080fd5b505afa158015610ba1573d6000803e3d6000fd5b505050506040513d601f19601f82011682018060405250610bc591908101906122ea565b10610be25760405162461bcd60e51b8152600401610979906130d0565b600b8101805460ff1916600117905560005b6003820154811015610cee576001546003830180546001600160a01b039092169163591fcdfe919084908110610c2657fe5b6000918252602090912001546004850180546001600160a01b039092169185908110610c4e57fe5b9060005260206000200154856005018581548110610c6857fe5b90600052602060002001866006018681548110610c8157fe5b9060005260206000200187600201546040518663ffffffff1660e01b8152600401610cb0959493929190612f12565b600060405180830381600087803b158015610cca57600080fd5b505af1158015610cde573d6000803e3d6000fd5b505060019092019150610bf49050565b507f789cf55be980739dad1d0699b93b58e806b51c9d96619bfa8fe0a28abaa7b30c83604051610d1e9190612fa0565b60405180910390a1505050565b6000604051610d3990612e44565b60405180910390206000604051610d509190612e07565b6040518091039020610d60611aac565b30604051602001610d749493929190612fae565b6040516020818303038152906040528051906020012090506000604051610d9a90612e4f565b604051908190038120610db39189908990602001612fe3565b60405160208183030381529060405280519060200120905060008282604051602001610de0929190612e13565b604051602081830303815290604052805190602001209050600060018288888860405160008152602001604052604051610e1d949392919061300b565b6020604051602081039080840390855afa158015610e3f573d6000803e3d6000fd5b5050604051601f1901519150506001600160a01b038116610e725760405162461bcd60e51b815260040161097990613110565b610e7d818a8a61188b565b505050505050505050565b69152d02c7e14af680000090565b601490565b69d3c21bcecceda100000090565b600080610f376064600260009054906101000a90046001600160a01b03166001600160a01b03166318160ddd6040518163ffffffff1660e01b815260040160206040518083038186803b158015610eff57600080fd5b505afa158015610f13573d6000803e3d6000fd5b505050506040513d601f19601f8201168201806040525061068491908101906122ea565b9050610f41610e88565b81116106ad576106a8610e88565b6001546001600160a01b031681565b60035481565b6000610f6e610ea9565b6002546001600160a01b031663782d6fe133610f9143600163ffffffff611a9716565b6040518363ffffffff1660e01b8152600401610fae929190612e5a565b60206040518083038186803b158015610fc657600080fd5b505afa158015610fda573d6000803e3d6000fd5b505050506040513d601f19601f82011682018060405250610ffe91908101906122ea565b1161101b5760405162461bcd60e51b815260040161097990613100565b8451865114801561102d575083518651145b801561103a575082518651145b6110565760405162461bcd60e51b8152600401610979906130c0565b85516110745760405162461bcd60e51b8152600401610979906130f0565b61107c610e96565b8651111561109c5760405162461bcd60e51b8152600401610979906130b0565b3360009081526005602052604090205480156111195760006110bd82610949565b905060018160078111156110cd57fe5b14156110eb5760405162461bcd60e51b815260040161097990613120565b60008160078111156110f957fe5b14156111175760405162461bcd60e51b8152600401610979906130a0565b505b6000611133611126610944565b439063ffffffff611a8516565b9050600061114f6111426104ae565b839063ffffffff611a8516565b6003805460010190559050611162611c0f565b604051806101a001604052806003548152602001336001600160a01b03168152602001600081526020018b81526020018a815260200189815260200188815260200184815260200183815260200160008152602001600081526020016000151581526020016000151581525090508060046000836000015181526020019081526020016000206000820151816000015560208201518160010160006101000a8154816001600160a01b0302191690836001600160a01b03160217905550604082015181600201556060820151816003019080519060200190611245929190611c84565b5060808201518051611261916004840191602090910190611ce9565b5060a0820151805161127d916005840191602090910190611d30565b5060c08201518051611299916006840191602090910190611d89565b5060e082015181600701556101008201518160080155610120820151816009015561014082015181600a015561016082015181600b0160006101000a81548160ff02191690831515021790555061018082015181600b0160016101000a81548160ff02191690831515021790555090505080600001516005600083602001516001600160a01b03166001600160a01b03168152602001908152602001600020819055507f7d84a6263ae0d98d3329bd7b46bb4e8d6f98cd35a7adb45c274c8b7fd5ebd5e08160000151338c8c8c8c89898e60405161137f9998979695949392919061315e565b60405180910390a15193505050505b95945050505050565b60046113a282610949565b60078111156113ad57fe5b146113ca5760405162461bcd60e51b815260040161097990613060565b60008181526004602081815260408084206001548251630d48571f60e31b81529251919594611465946001600160a01b0390921693636a42b8f89381830193929091829003018186803b15801561142057600080fd5b505afa158015611434573d6000803e3d6000fd5b505050506040513d601f19601f8201168201806040525061145891908101906122ea565b429063ffffffff611a8516565b905060005b600383015481101561160d5761160583600301828154811061148857fe5b6000918252602090912001546004850180546001600160a01b0390921691849081106114b057fe5b90600052602060002001548560050184815481106114ca57fe5b600091825260209182902001805460408051601f60026000196101006001871615020190941693909304928301859004850281018501909152818152928301828280156115585780601f1061152d57610100808354040283529160200191611558565b820191906000526020600020905b81548152906001019060200180831161153b57829003601f168201915b505050505086600601858154811061156c57fe5b600091825260209182902001805460408051601f60026000196101006001871615020190941693909304928301859004850281018501909152818152928301828280156115fa5780601f106115cf576101008083540402835291602001916115fa565b820191906000526020600020905b8154815290600101906020018083116115dd57829003601f168201915b505050505086611ab0565b60010161146a565b50600282018190556040517f9a2e42fd6722813d69113e7d0079d3d940171428df7373df9c7f7617cfda289290610d1e908590849061328c565b6040516105da90612e4f565b61165b611de2565b5060008281526004602090815260408083206001600160a01b0385168452600c018252918290208251606081018452815460ff808216151583526101009091041615159281019290925260010154918101919091525b92915050565b6002546001600160a01b031681565b60056116d182610949565b60078111156116dc57fe5b146116f95760405162461bcd60e51b815260040161097990613070565b6000818152600460205260408120600b8101805461ff001916610100179055905b600382015481101561184f576001546004830180546001600160a01b0390921691630825f38f91908490811061174c57fe5b906000526020600020015484600301848154811061176657fe5b6000918252602090912001546004860180546001600160a01b03909216918690811061178e57fe5b90600052602060002001548660050186815481106117a857fe5b906000526020600020018760060187815481106117c157fe5b9060005260206000200188600201546040518763ffffffff1660e01b81526004016117f0959493929190612f12565b6000604051808303818588803b15801561180957600080fd5b505af115801561181d573d6000803e3d6000fd5b50505050506040513d6000823e601f3d908101601f191682016040526118469190810190612308565b5060010161171a565b507f712ae1383f79ac853f8d882153778e0260ef8f03b504e2866e0593e04d2b291f8260405161187f9190612fa0565b60405180910390a15050565b600161189683610949565b60078111156118a157fe5b146118be5760405162461bcd60e51b815260040161097990613140565b60008281526004602090815260408083206001600160a01b0387168452600c8101909252909120805460ff16156119075760405162461bcd60e51b815260040161097990613090565b600254600783015460405163782d6fe160e01b81526000926001600160a01b03169163782d6fe19161193d918a91600401612e75565b60206040518083038186803b15801561195557600080fd5b505afa158015611969573d6000803e3d6000fd5b505050506040513d601f19601f8201168201806040525061198d91908101906122ea565b905083156119b45760098301546119aa908263ffffffff611a8516565b60098401556119cf565b600a8301546119c9908263ffffffff611a8516565b600a8401555b8154600160ff19909116811761ff0019166101008615150217835582018190556040517f877856338e13f63d0c36822ff0ef736b80934cd90574a3a5bc9262c39d217c4690611a25908890889088908690612e83565b60405180910390a1505050505050565b600082611a44575060006116b1565b82820282848281611a5157fe5b0414611a5c57600080fd5b9392505050565b6000808211611a7157600080fd5b6000828481611a7c57fe5b04949350505050565b600082820183811015611a5c57600080fd5b600082821115611aa657600080fd5b50900390565b4690565b6001546040516001600160a01b039091169063f2b0653790611ade9088908890889088908890602001612eb8565b604051602081830303815290604052805190602001206040518263ffffffff1660e01b8152600401611b109190612fa0565b60206040518083038186803b158015611b2857600080fd5b505afa158015611b3c573d6000803e3d6000fd5b505050506040513d601f19601f82011682018060405250611b6091908101906122cc565b15611b7d5760405162461bcd60e51b8152600401610979906130e0565b600154604051633a66f90160e01b81526001600160a01b0390911690633a66f90190611bb59088908890889088908890600401612eb8565b602060405180830381600087803b158015611bcf57600080fd5b505af1158015611be3573d6000803e3d6000fd5b505050506040513d601f19601f82011682018060405250611c0791908101906122ea565b505050505050565b604051806101a001604052806000815260200160006001600160a01b031681526020016000815260200160608152602001606081526020016060815260200160608152602001600081526020016000815260200160008152602001600081526020016000151581526020016000151581525090565b828054828255906000526020600020908101928215611cd9579160200282015b82811115611cd957825182546001600160a01b0319166001600160a01b03909116178255602090920191600190910190611ca4565b50611ce5929150611e02565b5090565b828054828255906000526020600020908101928215611d24579160200282015b82811115611d24578251825591602001919060010190611d09565b50611ce5929150611e26565b828054828255906000526020600020908101928215611d7d579160200282015b82811115611d7d5782518051611d6d918491602090910190611e40565b5091602001919060010190611d50565b50611ce5929150611ead565b828054828255906000526020600020908101928215611dd6579160200282015b82811115611dd65782518051611dc6918491602090910190611e40565b5091602001919060010190611da9565b50611ce5929150611ed0565b604080516060810182526000808252602082018190529181019190915290565b6104b291905b80821115611ce55780546001600160a01b0319168155600101611e08565b6104b291905b80821115611ce55760008155600101611e2c565b828054600181600116156101000203166002900490600052602060002090601f016020900481019282601f10611e8157805160ff1916838001178555611d24565b82800160010185558215611d245791820182811115611d24578251825591602001919060010190611d09565b6104b291905b80821115611ce5576000611ec78282611ef3565b50600101611eb3565b6104b291905b80821115611ce5576000611eea8282611ef3565b50600101611ed6565b50805460018160011615610100020316600290046000825580601f10611f195750611f37565b601f016020900490600052602060002090810190611f379190611e26565b50565b80356116b1816133be565b600082601f830112611f5657600080fd5b8135611f69611f64826132c1565b61329a565b91508181835260208401935060208101905083856020840282011115611f8e57600080fd5b60005b83811015611fba5781611fa48882611f3a565b8452506020928301929190910190600101611f91565b5050505092915050565b600082601f830112611fd557600080fd5b8135611fe3611f64826132c1565b81815260209384019390925082018360005b83811015611fba578135860161200b888261211a565b8452506020928301929190910190600101611ff5565b600082601f83011261203257600080fd5b8135612040611f64826132c1565b81815260209384019390925082018360005b83811015611fba5781358601612068888261211a565b8452506020928301929190910190600101612052565b600082601f83011261208f57600080fd5b813561209d611f64826132c1565b915081818352602084019350602081019050838560208402820111156120c257600080fd5b60005b83811015611fba57816120d88882612104565b84525060209283019291909101906001016120c5565b80356116b1816133d2565b80516116b1816133d2565b80356116b1816133db565b80516116b1816133db565b600082601f83011261212b57600080fd5b8135612139611f64826132e2565b9150808252602083016020830185838301111561215557600080fd5b612160838284613372565b50505092915050565b600082601f83011261217a57600080fd5b8151612188611f64826132e2565b915080825260208301602083018583830111156121a457600080fd5b61216083828461337e565b80356116b1816133e4565b6000602082840312156121cc57600080fd5b60006121d88484611f3a565b949350505050565b600080600080600060a086880312156121f857600080fd5b853567ffffffffffffffff81111561220f57600080fd5b61221b88828901611f45565b955050602086013567ffffffffffffffff81111561223857600080fd5b6122448882890161207e565b945050604086013567ffffffffffffffff81111561226157600080fd5b61226d88828901612021565b935050606086013567ffffffffffffffff81111561228a57600080fd5b61229688828901611fc4565b925050608086013567ffffffffffffffff8111156122b357600080fd5b6122bf8882890161211a565b9150509295509295909350565b6000602082840312156122de57600080fd5b60006121d884846120f9565b6000602082840312156122fc57600080fd5b60006121d8848461210f565b60006020828403121561231a57600080fd5b815167ffffffffffffffff81111561233157600080fd5b6121d884828501612169565b60006020828403121561234f57600080fd5b60006121d88484612104565b6000806040838503121561236e57600080fd5b600061237a8585612104565b925050602061238b85828601611f3a565b9150509250929050565b600080604083850312156123a857600080fd5b60006123b48585612104565b925050602061238b858286016120ee565b600080600080600060a086880312156123dd57600080fd5b60006123e98888612104565b95505060206123fa888289016120ee565b945050604061240b888289016121af565b935050606061241c88828901612104565b92505060806122bf88828901612104565b60006124398383612468565b505060200190565b6000611a5c838361260a565b600061243983836125f0565b61246281613355565b82525050565b61246281613329565b600061247c8261331c565b6124868185613320565b93506124918361330a565b8060005b838110156124bf5781516124a9888261242d565b97506124b48361330a565b925050600101612495565b509495945050505050565b60006124d58261331c565b6124df8185613320565b9350836020820285016124f18561330a565b8060005b8581101561252b578484038952815161250e8582612441565b94506125198361330a565b60209a909a01999250506001016124f5565b5091979650505050505050565b60006125438261331c565b61254d8185613320565b93508360208202850161255f8561330a565b8060005b8581101561252b578484038952815161257c8582612441565b94506125878361330a565b60209a909a0199925050600101612563565b60006125a48261331c565b6125ae8185613320565b93506125b98361330a565b8060005b838110156124bf5781516125d1888261244d565b97506125dc8361330a565b9250506001016125bd565b61246281613334565b612462816104b2565b612462612605826104b2565b6104b2565b60006126158261331c565b61261f8185613320565b935061262f81856020860161337e565b612638816133aa565b9093019392505050565b60008154600181166000811461265f5760018114612682576126c1565b607f60028304166126708187610ad5565b60ff19841681529550850192506126c1565b600282046126908187610ad5565b955061269b85613310565b60005b828110156126ba5781548882015260019091019060200161269e565b5050850192505b505092915050565b6000815460018116600081146126e6576001811461270c576126c1565b607f60028304166126f78187613320565b60ff19841681529550506020850192506126c1565b6002820461271a8187613320565b955061272585613310565b60005b8281101561274457815488820152600190910190602001612728565b9096019695505050505050565b6124628161335c565b61246281613367565b6000612770604483613320565b7f476f7665726e6f72416c7068613a3a71756575653a2070726f706f73616c206381527f616e206f6e6c79206265207175657565642069662069742069732073756363656020820152631959195960e21b604082015260600192915050565b60006127dc604583613320565b7f476f7665726e6f72416c7068613a3a657865637574653a2070726f706f73616c81527f2063616e206f6e6c7920626520657865637574656420696620697420697320716020820152641d595d595960da1b604082015260600192915050565b6000612849600283610ad5565b61190160f01b815260020192915050565b6000612867602983613320565b7f476f7665726e6f72416c7068613a3a73746174653a20696e76616c69642070728152681bdc1bdcd85b081a5960ba1b602082015260400192915050565b60006128b2602d83613320565b7f476f7665726e6f72416c7068613a3a5f63617374566f74653a20766f7465722081526c185b1c9958591e481d9bdd1959609a1b602082015260400192915050565b6000612901605983613320565b7f476f7665726e6f72416c7068613a3a70726f706f73653a206f6e65206c69766581527f2070726f706f73616c207065722070726f706f7365722c20666f756e6420616e60208201527f20616c72656164792070656e64696e672070726f706f73616c00000000000000604082015260600192915050565b6000612986602883613320565b7f476f7665726e6f72416c7068613a3a70726f706f73653a20746f6f206d616e7981526720616374696f6e7360c01b602082015260400192915050565b60006129d0604383610ad5565b7f454950373132446f6d61696e28737472696e67206e616d652c75696e7432353681527f20636861696e49642c6164647265737320766572696679696e67436f6e74726160208201526263742960e81b604082015260430192915050565b6000612a3b602783610ad5565b7f42616c6c6f742875696e743235362070726f706f73616c49642c626f6f6c20738152667570706f72742960c81b602082015260270192915050565b6000612a84604483613320565b7f476f7665726e6f72416c7068613a3a70726f706f73653a2070726f706f73616c81527f2066756e6374696f6e20696e666f726d6174696f6e206172697479206d69736d6020820152630c2e8c6d60e31b604082015260600192915050565b6000612af0602f83613320565b7f476f7665726e6f72416c7068613a3a63616e63656c3a2070726f706f7365722081526e18589bdd99481d1a1c995cda1bdb19608a1b602082015260400192915050565b6000612b41604483613320565b7f476f7665726e6f72416c7068613a3a5f71756575654f725265766572743a207081527f726f706f73616c20616374696f6e20616c7265616479207175657565642061746020820152632065746160e01b604082015260600192915050565b6000612bad602c83613320565b7f476f7665726e6f72416c7068613a3a70726f706f73653a206d7573742070726f81526b7669646520616374696f6e7360a01b602082015260400192915050565b6000612bfb603f83613320565b7f476f7665726e6f72416c7068613a3a70726f706f73653a2070726f706f73657281527f20766f7465732062656c6f772070726f706f73616c207468726573686f6c6400602082015260400192915050565b6000612c5a602f83613320565b7f476f7665726e6f72416c7068613a3a63617374566f746542795369673a20696e81526e76616c6964207369676e617475726560881b602082015260400192915050565b6000612cab605883613320565b7f476f7665726e6f72416c7068613a3a70726f706f73653a206f6e65206c69766581527f2070726f706f73616c207065722070726f706f7365722c20666f756e6420616e60208201527f20616c7265616479206163746976652070726f706f73616c0000000000000000604082015260600192915050565b6000612d30603683613320565b7f476f7665726e6f72416c7068613a3a63616e63656c3a2063616e6e6f742063618152751b98d95b08195e1958dd5d1959081c1c9bdc1bdcd85b60521b602082015260400192915050565b6000612d88602a83613320565b7f476f7665726e6f72416c7068613a3a5f63617374566f74653a20766f74696e67815269081a5cc818db1bdcd95960b21b602082015260400192915050565b80516060830190612dd884826125e7565b506020820151612deb60208501826125e7565b5060408201516105a760408501826125f0565b6124628161334f565b6000611a5c8284612642565b6000612e1e8261283c565b9150612e2a82856125f9565b602082019150612e3a82846125f9565b5060200192915050565b60006116b1826129c3565b60006116b182612a2e565b60408101612e688285612459565b611a5c60208301846125f0565b60408101612e688285612468565b60808101612e918287612468565b612e9e60208301866125f0565b612eab60408301856125e7565b61138e60608301846125f0565b60a08101612ec68288612468565b612ed360208301876125f0565b8181036040830152612ee5818661260a565b90508181036060830152612ef9818561260a565b9050612f0860808301846125f0565b9695505050505050565b60a08101612f208288612468565b612f2d60208301876125f0565b8181036040830152612f3f81866126c9565b90508181036060830152612ef981856126c9565b60808082528101612f648187612471565b90508181036020830152612f788186612599565b90508181036040830152612f8c8185612538565b90508181036060830152612f0881846124ca565b602081016116b182846125f0565b60808101612fbc82876125f0565b612fc960208301866125f0565b612fd660408301856125f0565b61138e6060830184612468565b60608101612ff182866125f0565b612ffe60208301856125f0565b6121d860408301846125e7565b6080810161301982876125f0565b6130266020830186612dfe565b612eab60408301856125f0565b602081016116b18284612751565b602081016116b1828461275a565b60208082528101611a5c818461260a565b602080825281016116b181612763565b602080825281016116b1816127cf565b602080825281016116b18161285a565b602080825281016116b1816128a5565b602080825281016116b1816128f4565b602080825281016116b181612979565b602080825281016116b181612a77565b602080825281016116b181612ae3565b602080825281016116b181612b34565b602080825281016116b181612ba0565b602080825281016116b181612bee565b602080825281016116b181612c4d565b602080825281016116b181612c9e565b602080825281016116b181612d23565b602080825281016116b181612d7b565b606081016116b18284612dc7565b610120810161316d828c6125f0565b61317a602083018b612459565b818103604083015261318c818a612471565b905081810360608301526131a08189612599565b905081810360808301526131b48188612538565b905081810360a08301526131c881876124ca565b90506131d760c08301866125f0565b6131e460e08301856125f0565b8181036101008301526131f7818461260a565b9b9a5050505050505050505050565b6101208101613215828c6125f0565b613222602083018b612468565b61322f604083018a6125f0565b61323c60608301896125f0565b61324960808301886125f0565b61325660a08301876125f0565b61326360c08301866125f0565b61327060e08301856125e7565b61327e6101008301846125e7565b9a9950505050505050505050565b60408101612e6882856125f0565b60405181810167ffffffffffffffff811182821017156132b957600080fd5b604052919050565b600067ffffffffffffffff8211156132d857600080fd5b5060209081020190565b600067ffffffffffffffff8211156132f957600080fd5b506020601f91909101601f19160190565b60200190565b60009081526020902090565b5190565b90815260200190565b60006116b182613343565b151590565b80610ad5816133b4565b6001600160a01b031690565b60ff1690565b60006116b1825b60006116b182613329565b60006116b182613339565b82818337506000910152565b60005b83811015613399578181015183820152602001613381565b838111156105a75750506000910152565b601f01601f191690565b60088110611f3757fe5b6133c781613329565b8114611f3757600080fd5b6133c781613334565b6133c7816104b2565b6133c78161334f56fea365627a7a72315820099decdc4a280099b306a582b04e0919645a6b56532629f9551ef766736aa62c6c6578706572696d656e74616cf564736f6c63430005100040",
  "linkReferences": {},
  "deployedLinkReferences": {}
}