{
  "address": "0xFA0D095fb5ae9248b3E861B3011F5F6F33a3B455",
  "abi": [
    {
      "constant": true,
      "inputs": [],
      "name": "name",
      "outputs": [
        {
          "name": "",
          "type": "string"
        }
      ],
      "payable": false,
      "stateMutability": "view",
      "type": "function"
    },
    {
      "constant": false,
      "inputs": [
        {
          "name": "_amount",
          "type": "uint256"
        }
      ],
      "name": "withdrawInterest",
      "outputs": [],
      "payable": false,
      "stateMutability": "nonpayable",
      "type": "function"
    },
    {
      "constant": false,
      "inputs": [
        {
          "name": "spender",
          "type": "address"
        },
        {
          "name": "value",
          "type": "uint256"
        }
      ],
      "name": "approve",
      "outputs": [
        {
          "name": "",
          "type": "bool"
        }
      ],
      "payable": false,
      "stateMutability": "nonpayable",
      "type": "function"
    },
    {
      "constant": true,
      "inputs": [],
      "name": "cReserveToken",
      "outputs": [
        {
          "name": "",
          "type": "address"
        }
      ],
      "payable": false,
      "stateMutability": "view",
      "type": "function"
    },
    {
      "constant": true,
      "inputs": [],
      "name": "totalSupply",
      "outputs": [
        {
          "name": "",
          "type": "uint256"
        }
      ],
      "payable": false,
      "stateMutability": "view",
      "type": "function"
    },
    {
      "constant": false,
      "inputs": [
        {
          "name": "from",
          "type": "address"
        },
        {
          "name": "to",
          "type": "address"
        },
        {
          "name": "value",
          "type": "uint256"
        }
      ],
      "name": "transferFrom",
      "outputs": [
        {
          "name": "",
          "type": "bool"
        }
      ],
      "payable": false,
      "stateMutability": "nonpayable",
      "type": "function"
    },
    {
      "constant": true,
      "inputs": [],
      "name": "mintFeeBPS",
      "outputs": [
        {
          "name": "",
          "type": "uint256"
        }
      ],
      "payable": false,
      "stateMutability": "view",
      "type": "function"
    },
    {
      "constant": true,
      "inputs": [],
      "name": "decimals",
      "outputs": [
        {
          "name": "",
          "type": "uint8"
        }
      ],
      "payable": false,
      "stateMutability": "view",
      "type": "function"
    },
    {
      "constant": false,
      "inputs": [
        {
          "name": "spender",
          "type": "address"
        },
        {
          "name": "addedValue",
          "type": "uint256"
        }
      ],
      "name": "increaseAllowance",
      "outputs": [
        {
          "name": "",
          "type": "bool"
        }
      ],
      "payable": false,
      "stateMutability": "nonpayable",
      "type": "function"
    },
    {
      "constant": false,
      "inputs": [
        {
          "name": "_amount",
          "type": "uint256"
        }
      ],
      "name": "burn",
      "outputs": [],
      "payable": false,
      "stateMutability": "nonpayable",
      "type": "function"
    },
    {
      "constant": false,
      "inputs": [
        {
          "name": "_to",
          "type": "address"
        },
        {
          "name": "_tokenAddress",
          "type": "address"
        },
        {
          "name": "_amount",
          "type": "uint256"
        }
      ],
      "name": "decreaseWithdrawalApproval",
      "outputs": [],
      "payable": false,
      "stateMutability": "nonpayable",
      "type": "function"
    },
    {
      "constant": true,
      "inputs": [],
      "name": "totalReserve",
      "outputs": [
        {
          "name": "",
          "type": "uint256"
        }
      ],
      "payable": false,
      "stateMutability": "view",
      "type": "function"
    },
    {
      "constant": false,
      "inputs": [
        {
          "name": "_to",
          "type": "address"
        },
        {
          "name": "_tokenAddress",
          "type": "address"
        },
        {
          "name": "_amount",
          "type": "uint256"
        }
      ],
      "name": "increaseWithdrawalApproval",
      "outputs": [],
      "payable": false,
      "stateMutability": "nonpayable",
      "type": "function"
    },
    {
      "constant": true,
      "inputs": [
        {
          "name": "owner",
          "type": "address"
        }
      ],
      "name": "balanceOf",
      "outputs": [
        {
          "name": "",
          "type": "uint256"
        }
      ],
      "payable": false,
      "stateMutability": "view",
      "type": "function"
    },
    {
      "constant": false,
      "inputs": [],
      "name": "renounceOwnership",
      "outputs": [],
      "payable": false,
      "stateMutability": "nonpayable",
      "type": "function"
    },
    {
      "constant": true,
      "inputs": [],
      "name": "owner",
      "outputs": [
        {
          "name": "",
          "type": "address"
        }
      ],
      "payable": false,
      "stateMutability": "view",
      "type": "function"
    },
    {
      "constant": true,
      "inputs": [],
      "name": "isOwner",
      "outputs": [
        {
          "name": "",
          "type": "bool"
        }
      ],
      "payable": false,
      "stateMutability": "view",
      "type": "function"
    },
    {
      "constant": true,
      "inputs": [],
      "name": "symbol",
      "outputs": [
        {
          "name": "",
          "type": "string"
        }
      ],
      "payable": false,
      "stateMutability": "view",
      "type": "function"
    },
    {
      "constant": false,
      "inputs": [
        {
          "name": "_tokenAddress",
          "type": "address"
        },
        {
          "name": "_amount",
          "type": "uint256"
        }
      ],
      "name": "withdrawToken",
      "outputs": [],
      "payable": false,
      "stateMutability": "nonpayable",
      "type": "function"
    },
    {
      "constant": false,
      "inputs": [
        {
          "name": "_amount",
          "type": "uint256"
        }
      ],
      "name": "mint",
      "outputs": [],
      "payable": false,
      "stateMutability": "nonpayable",
      "type": "function"
    },
    {
      "constant": true,
      "inputs": [],
      "name": "reserveBalance",
      "outputs": [
        {
          "name": "",
          "type": "uint256"
        }
      ],
      "payable": false,
      "stateMutability": "view",
      "type": "function"
    },
    {
      "constant": false,
      "inputs": [
        {
          "name": "spender",
          "type": "address"
        },
        {
          "name": "subtractedValue",
          "type": "uint256"
        }
      ],
      "name": "decreaseAllowance",
      "outputs": [
        {
          "name": "",
          "type": "bool"
        }
      ],
      "payable": false,
      "stateMutability": "nonpayable",
      "type": "function"
    },
    {
      "constant": false,
      "inputs": [
        {
          "name": "to",
          "type": "address"
        },
        {
          "name": "value",
          "type": "uint256"
        }
      ],
      "name": "transfer",
      "outputs": [
        {
          "name": "",
          "type": "bool"
        }
      ],
      "payable": false,
      "stateMutability": "nonpayable",
      "type": "function"
    },
    {
      "constant": true,
      "inputs": [],
      "name": "reserveDifferential",
      "outputs": [
        {
          "name": "",
          "type": "uint256"
        }
      ],
      "payable": false,
      "stateMutability": "view",
      "type": "function"
    },
    {
      "constant": true,
      "inputs": [
        {
          "name": "owner",
          "type": "address"
        },
        {
          "name": "spender",
          "type": "address"
        }
      ],
      "name": "allowance",
      "outputs": [
        {
          "name": "",
          "type": "uint256"
        }
      ],
      "payable": false,
      "stateMutability": "view",
      "type": "function"
    },
    {
      "constant": false,
      "inputs": [
        {
          "name": "newOwner",
          "type": "address"
        }
      ],
      "name": "transferOwnership",
      "outputs": [],
      "payable": false,
      "stateMutability": "nonpayable",
      "type": "function"
    },
    {
      "constant": true,
      "inputs": [],
      "name": "reserveToken",
      "outputs": [
        {
          "name": "",
          "type": "address"
        }
      ],
      "payable": false,
      "stateMutability": "view",
      "type": "function"
    },
    {
      "inputs": [
        {
          "name": "_reserveTokenAddress",
          "type": "address"
        },
        {
          "name": "_cReserveTokenAddress",
          "type": "address"
        },
        {
          "name": "_mintFeeBPS",
          "type": "uint256"
        }
      ],
      "payable": false,
      "stateMutability": "nonpayable",
      "type": "constructor"
    },
    {
      "anonymous": false,
      "inputs": [
        {
          "indexed": false,
          "name": "sender",
          "type": "address"
        },
        {
          "indexed": false,
          "name": "amount",
          "type": "uint256"
        }
      ],
      "name": "Minted",
      "type": "event"
    },
    {
      "anonymous": false,
      "inputs": [
        {
          "indexed": false,
          "name": "sender",
          "type": "address"
        },
        {
          "indexed": false,
          "name": "amount",
          "type": "uint256"
        }
      ],
      "name": "Burned",
      "type": "event"
    },
    {
      "anonymous": false,
      "inputs": [
        {
          "indexed": false,
          "name": "spender",
          "type": "address"
        },
        {
          "indexed": false,
          "name": "token",
          "type": "address"
        },
        {
          "indexed": false,
          "name": "amount",
          "type": "uint256"
        }
      ],
      "name": "WithdrawalApproval",
      "type": "event"
    },
    {
      "anonymous": false,
      "inputs": [
        {
          "indexed": true,
          "name": "from",
          "type": "address"
        },
        {
          "indexed": true,
          "name": "to",
          "type": "address"
        },
        {
          "indexed": false,
          "name": "value",
          "type": "uint256"
        }
      ],
      "name": "Transfer",
      "type": "event"
    },
    {
      "anonymous": false,
      "inputs": [
        {
          "indexed": true,
          "name": "owner",
          "type": "address"
        },
        {
          "indexed": true,
          "name": "spender",
          "type": "address"
        },
        {
          "indexed": false,
          "name": "value",
          "type": "uint256"
        }
      ],
      "name": "Approval",
      "type": "event"
    },
    {
      "anonymous": false,
      "inputs": [
        {
          "indexed": true,
          "name": "previousOwner",
          "type": "address"
        },
        {
          "indexed": true,
          "name": "newOwner",
          "type": "address"
        }
      ],
      "name": "OwnershipTransferred",
      "type": "event"
    }
  ],
  "transactionHash": "0x2e2bace52f35450696155aead87f97a297784cc6547fb9b8daab960af5949ded",
  "args": [
    "0x5592EC0cfb4dbc12D3aB100b257153436a1f0FEa",
    "0x6D7F0754FFeb405d23C51CE938289d4835bE3b14",
    200
  ],
  "solcInputHash": "54c845cedab274e70363ae198193d1c5",
  "bytecode": "0x60806040523480156200001157600080fd5b5060405160608062001f528339810160408181528251602080850151948301518385018452601785527f4272656164636861696e2043726f77647374616b696e670000000000000000008286015283518085018552600581527f59454153540000000000000000000000000000000000000000000000000000009281019290925260008054600160a060020a0319163317808255945193969591949193601292600160a060020a031691907f8be0079c531659141344cd1fd0a4f28419497f9722a3daafe3b4186f6b6457e0908290a38251620000f690600490602086019062000160565b5081516200010c90600590602085019062000160565b506006805460ff191660ff929092169190911761010060a860020a031916610100600160a060020a0397881602179055505060078054600160a060020a031916929093169190911790915560095562000205565b828054600181600116156101000203166002900490600052602060002090601f016020900481019282601f10620001a357805160ff1916838001178555620001d3565b82800160010185558215620001d3579182015b82811115620001d3578251825591602001919060010190620001b6565b50620001e1929150620001e5565b5090565b6200020291905b80821115620001e15760008155600101620001ec565b90565b611d3d80620002156000396000f30060806040526004361061015e5763ffffffff7c010000000000000000000000000000000000000000000000000000000060003504166306fdde03811461016357806308669aab146101ed578063095ea7b3146102075780630da4fea91461023f57806318160ddd1461027057806323b872dd1461029757806327fd0c3f146102c1578063313ce567146102d6578063395093511461030157806342966c681461032557806348e389171461033d5780634c68df6714610367578063505f14571461037c57806370a08231146103a6578063715018a6146103c75780638da5cb5b146103dc5780638f32d59b146103f157806395d89b41146104065780639e281a981461041b578063a0712d681461043f578063a10954fe14610457578063a457c2d71461046c578063a9059cbb14610490578063c7ca06a9146104b4578063dd62ed3e146104c9578063f2fde38b146104f0578063f4325d6714610511575b600080fd5b34801561016f57600080fd5b50610178610526565b6040805160208082528351818301528351919283929083019185019080838360005b838110156101b257818101518382015260200161019a565b50505050905090810190601f1680156101df5780820380516001836020036101000a031916815260200191505b509250505060405180910390f35b3480156101f957600080fd5b506102056004356105bc565b005b34801561021357600080fd5b5061022b600160a060020a03600435166024356109bd565b604080519115158252519081900360200190f35b34801561024b57600080fd5b506102546109d3565b60408051600160a060020a039092168252519081900360200190f35b34801561027c57600080fd5b506102856109e2565b60408051918252519081900360200190f35b3480156102a357600080fd5b5061022b600160a060020a03600435811690602435166044356109e8565b3480156102cd57600080fd5b50610285610a3f565b3480156102e257600080fd5b506102eb610a45565b6040805160ff9092168252519081900360200190f35b34801561030d57600080fd5b5061022b600160a060020a0360043516602435610a4e565b34801561033157600080fd5b50610205600435610a8a565b34801561034957600080fd5b50610205600160a060020a0360043581169060243516604435610cad565b34801561037357600080fd5b50610285610df0565b34801561038857600080fd5b50610205600160a060020a0360043581169060243516604435610df6565b3480156103b257600080fd5b50610285600160a060020a0360043516610ecb565b3480156103d357600080fd5b50610205610ee6565b3480156103e857600080fd5b50610254610f50565b3480156103fd57600080fd5b5061022b610f5f565b34801561041257600080fd5b50610178610f70565b34801561042757600080fd5b50610205600160a060020a0360043516602435610fd1565b34801561044b57600080fd5b50610205600435611300565b34801561046357600080fd5b5061028561165f565b34801561047857600080fd5b5061022b600160a060020a0360043516602435611665565b34801561049c57600080fd5b5061022b600160a060020a03600435166024356116a1565b3480156104c057600080fd5b506102856116ae565b3480156104d557600080fd5b50610285600160a060020a036004358116906024351661175c565b3480156104fc57600080fd5b50610205600160a060020a0360043516611787565b34801561051d57600080fd5b506102546117a6565b60048054604080516020601f60026000196101006001881615020190951694909404938401819004810282018101909252828152606093909290918301828280156105b25780601f10610587576101008083540402835291602001916105b2565b820191906000526020600020905b81548152906001019060200180831161059557829003601f168201915b5050505050905090565b6000806105c7610f5f565b151561070957336000908152600a602090815260408083206006546101009004600160a060020a03168452909152902054915082821015610678576040805160e560020a62461bcd02815260206004820152602f60248201527f7769746864726177496e7465726573742829206e6f7420656e6f75676820776960448201527f746864726177416c6c6f77616e63650000000000000000000000000000000000606482015290519081900360840190fd5b610688828463ffffffff6117ba16565b336000818152600a6020908152604080832060068054600160a060020a03610100918290048116875292855283862097909755549590950490941680835291849020548451938452908301919091528183015290517f86cf336bf0eef9691e91aad1f012fdff22e082219d77b1b84289e919a1ed1326916060908290030190a15b6107116116ae565b905082811015610791576040805160e560020a62461bcd02815260206004820152603c60248201527f7769746864726177496e746572657374282920696e746572657374206163637260448201527f7565642069732062656c6f7720776974686472617720616d6f756e7400000000606482015290519081900360840190fd5b600754604080517f852a12e3000000000000000000000000000000000000000000000000000000008152600481018690529051600160a060020a039092169163852a12e3916024808201926020929091908290030181600087803b1580156107f857600080fd5b505af115801561080c573d6000803e3d6000fd5b505050506040513d602081101561082257600080fd5b50511561089f576040805160e560020a62461bcd02815260206004820152603260248201527f7769746864726177496e7465726573742829206345524332302e72656465656d60448201527f556e6465726c79696e67206661696c65642e0000000000000000000000000000606482015290519081900360840190fd5b600654604080517fa9059cbb000000000000000000000000000000000000000000000000000000008152336004820152602481018690529051610100909204600160a060020a03169163a9059cbb916044808201926020929091908290030181600087803b15801561091057600080fd5b505af1158015610924573d6000803e3d6000fd5b505050506040513d602081101561093a57600080fd5b505115156109b8576040805160e560020a62461bcd02815260206004820152602960248201527f7769746864726177496e74657265737428292045524332302e7472616e73666560448201527f72206661696c65642e0000000000000000000000000000000000000000000000606482015290519081900360840190fd5b505050565b60006109ca3384846117d8565b50600192915050565b600754600160a060020a031681565b60035490565b60006109f5848484611864565b600160a060020a038416600090815260026020908152604080832033808552925290912054610a35918691610a30908663ffffffff6117ba16565b6117d8565b5060019392505050565b60095481565b60065460ff1690565b336000818152600260209081526040808320600160a060020a038716845290915281205490916109ca918590610a30908663ffffffff61193316565b610a938161194c565b600754604080517f852a12e3000000000000000000000000000000000000000000000000000000008152600481018490529051600160a060020a039092169163852a12e3916024808201926020929091908290030181600087803b158015610afa57600080fd5b505af1158015610b0e573d6000803e3d6000fd5b505050506040513d6020811015610b2457600080fd5b505115610ba1576040805160e560020a62461bcd02815260206004820152602660248201527f6275726e2829206345524332302e72656465656d556e6465726c79696e67206660448201527f61696c65642e0000000000000000000000000000000000000000000000000000606482015290519081900360840190fd5b600654604080517fa9059cbb000000000000000000000000000000000000000000000000000000008152336004820152602481018490529051610100909204600160a060020a03169163a9059cbb916044808201926020929091908290030181600087803b158015610c1257600080fd5b505af1158015610c26573d6000803e3d6000fd5b505050506040513d6020811015610c3c57600080fd5b50511515610c94576040805160e560020a62461bcd02815260206004820152601d60248201527f6275726e28292045524332302e7472616e73666572206661696c65642e000000604482015290519081900360640190fd5b600854610ca7908263ffffffff6117ba16565b60085550565b610cb5610f5f565b1515610cc057600080fd5b600754600160a060020a0383811691161415610d4c576040805160e560020a62461bcd02815260206004820152603f60248201527f64656372656173655769746864726177616c416c6c6f77616e6365282920636160448201527f6e6e6f7420776974686472617720636f6c6c61746572616c20746f6b656e2e00606482015290519081900360840190fd5b600160a060020a038084166000908152600a6020908152604080832093861683529290522054610d82908263ffffffff6117ba16565b600160a060020a038481166000818152600a6020908152604080832094881680845294825291829020859055815192835282019290925280820192909252517f86cf336bf0eef9691e91aad1f012fdff22e082219d77b1b84289e919a1ed13269181900360600190a1505050565b60085481565b610dfe610f5f565b1515610e0957600080fd5b600754600160a060020a0383811691161415610e95576040805160e560020a62461bcd02815260206004820152603f60248201527f696e6372656173655769746864726177616c416c6c6f77616e6365282920636160448201527f6e6e6f7420776974686472617720636f6c6c61746572616c20746f6b656e2e00606482015290519081900360840190fd5b600160a060020a038084166000908152600a6020908152604080832093861683529290522054610d82908263ffffffff61193316565b600160a060020a031660009081526001602052604090205490565b610eee610f5f565b1515610ef957600080fd5b60008054604051600160a060020a03909116907f8be0079c531659141344cd1fd0a4f28419497f9722a3daafe3b4186f6b6457e0908390a36000805473ffffffffffffffffffffffffffffffffffffffff19169055565b600054600160a060020a031690565b600054600160a060020a0316331490565b60058054604080516020601f60026000196101006001881615020190951694909404938401819004810282018101909252828152606093909290918301828280156105b25780601f10610587576101008083540402835291602001916105b2565b600754600090600160a060020a0384811691161415611060576040805160e560020a62461bcd02815260206004820152603160248201527f7769746864726177546f6b656e28292063616e6e6f742077697468647261772060448201527f636f6c6c61746572616c20746f6b656e2e000000000000000000000000000000606482015290519081900360840190fd5b611068610f5f565b151561118a5750336000908152600a60209081526040808320600160a060020a038616845290915290205481811015611111576040805160e560020a62461bcd02815260206004820152602f60248201527f7769746864726177496e7465726573742829206e6f7420656e6f75676820776960448201527f746864726177416c6c6f77616e63650000000000000000000000000000000000606482015290519081900360840190fd5b611121818363ffffffff6117ba16565b336000818152600a60209081526040808320600160a060020a038916808552908352928190208590558051938452908301919091528181019290925290517f86cf336bf0eef9691e91aad1f012fdff22e082219d77b1b84289e919a1ed13269181900360600190a15b600160a060020a03831673eeeeeeeeeeeeeeeeeeeeeeeeeeeeeeeeeeeeeeee14156111f05730318211156111bd57600080fd5b604051339083156108fc029084906000818181858888f193505050501580156111ea573d6000803e3d6000fd5b506109b8565b604080517fa9059cbb000000000000000000000000000000000000000000000000000000008152336004820152602481018490529051600160a060020a0385169163a9059cbb9160448083019260209291908290030181600087803b15801561125857600080fd5b505af115801561126c573d6000803e3d6000fd5b505050506040513d602081101561128257600080fd5b505115156109b8576040805160e560020a62461bcd02815260206004820152602660248201527f7769746864726177546f6b656e28292045524332302e7472616e73666572206660448201527f61696c65642e0000000000000000000000000000000000000000000000000000606482015290519081900360840190fd5b600061133961132c61271061132060095486611a4c90919063ffffffff16565b9063ffffffff611a7a16565b839063ffffffff6117ba16565b905061134481611a9d565b600654604080517f23b872dd000000000000000000000000000000000000000000000000000000008152336004820152306024820152604481018590529051610100909204600160a060020a0316916323b872dd916064808201926020929091908290030181600087803b1580156113bb57600080fd5b505af11580156113cf573d6000803e3d6000fd5b505050506040513d60208110156113e557600080fd5b50511515611463576040805160e560020a62461bcd02815260206004820152602160248201527f6d696e7428292045524332302e7472616e7366657246726f6d206661696c656460448201527f2e00000000000000000000000000000000000000000000000000000000000000606482015290519081900360840190fd5b600654600754604080517f095ea7b3000000000000000000000000000000000000000000000000000000008152600160a060020a0392831660048201526024810186905290516101009093049091169163095ea7b3916044808201926020929091908290030181600087803b1580156114db57600080fd5b505af11580156114ef573d6000803e3d6000fd5b505050506040513d602081101561150557600080fd5b5051151561155d576040805160e560020a62461bcd02815260206004820152601c60248201527f6d696e7428292045524332302e617070726f7665206661696c65642e00000000604482015290519081900360640190fd5b600754604080517fa0712d68000000000000000000000000000000000000000000000000000000008152600481018590529051600160a060020a039092169163a0712d68916024808201926020929091908290030181600087803b1580156115c457600080fd5b505af11580156115d8573d6000803e3d6000fd5b505050506040513d60208110156115ee57600080fd5b505115611645576040805160e560020a62461bcd02815260206004820152601a60248201527f6d696e742829206345524332302e6d696e74206661696c65642e000000000000604482015290519081900360640190fd5b600854611658908263ffffffff61193316565b6008555050565b60085490565b336000818152600260209081526040808320600160a060020a038716845290915281205490916109ca918590610a30908663ffffffff6117ba16565b60006109ca338484611864565b600854600754604080517f3af9e6690000000000000000000000000000000000000000000000000000000081523060048201529051600093611757939092600160a060020a0390911691633af9e6699160248082019260209290919082900301818987803b15801561171f57600080fd5b505af1158015611733573d6000803e3d6000fd5b505050506040513d602081101561174957600080fd5b50519063ffffffff6117ba16565b905090565b600160a060020a03918216600090815260026020908152604080832093909416825291909152205490565b61178f610f5f565b151561179a57600080fd5b6117a381611b3d565b50565b6006546101009004600160a060020a031681565b600080838311156117ca57600080fd5b5050808203805b5092915050565b600160a060020a03821615156117ed57600080fd5b600160a060020a038316151561180257600080fd5b600160a060020a03808416600081815260026020908152604080832094871680845294825291829020859055815185815291517f8c5be1e5ebec7d5bd14f71427d1e84f3dd0314c0f7b2291e5b200ac8c7c3b9259281900390910190a3505050565b600160a060020a038216151561187957600080fd5b600160a060020a0383166000908152600160205260409020546118a2908263ffffffff6117ba16565b600160a060020a0380851660009081526001602052604080822093909355908416815220546118d7908263ffffffff61193316565b600160a060020a0380841660008181526001602090815260409182902094909455805185815290519193928716927fddf252ad1be2c89b69c2b068fc378daa952ba7f163c4a11628f55a4df523b3ef92918290030190a3505050565b60008282018381101561194557600080fd5b9392505050565b600081116119a4576040805160e560020a62461bcd02815260206004820152601860248201527f416d6f756e74206d757374206265206e6f6e2d7a65726f2e0000000000000000604482015290519081900360640190fd5b806119ae33610ecb565b1015611a04576040805160e560020a62461bcd02815260206004820152601c60248201527f496e73756666696369656e7420746f6b656e7320746f206275726e2e00000000604482015290519081900360640190fd5b611a0e3382611bba565b604080513381526020810183905281517f696de425f79f4a40bc6d2122ca50507f0efbeabbff86a84871b7196ab8ea8df7929181900390910190a150565b600080831515611a5f57600091506117d1565b50828202828482811515611a6f57fe5b041461194557600080fd5b600080808311611a8957600080fd5b8284811515611a9457fe5b04949350505050565b60008111611af5576040805160e560020a62461bcd02815260206004820152601960248201527f4465706f736974206d757374206265206e6f6e2d7a65726f2e00000000000000604482015290519081900360640190fd5b611aff3382611c65565b604080513381526020810183905281517f30385c845b448a36257a6a1716e6ad2e1bc2cbe333cde1e69fe849ad6511adfe929181900390910190a150565b600160a060020a0381161515611b5257600080fd5b60008054604051600160a060020a03808516939216917f8be0079c531659141344cd1fd0a4f28419497f9722a3daafe3b4186f6b6457e091a36000805473ffffffffffffffffffffffffffffffffffffffff1916600160a060020a0392909216919091179055565b600160a060020a0382161515611bcf57600080fd5b600354611be2908263ffffffff6117ba16565b600355600160a060020a038216600090815260016020526040902054611c0e908263ffffffff6117ba16565b600160a060020a0383166000818152600160209081526040808320949094558351858152935191937fddf252ad1be2c89b69c2b068fc378daa952ba7f163c4a11628f55a4df523b3ef929081900390910190a35050565b600160a060020a0382161515611c7a57600080fd5b600354611c8d908263ffffffff61193316565b600355600160a060020a038216600090815260016020526040902054611cb9908263ffffffff61193316565b600160a060020a03831660008181526001602090815260408083209490945583518581529351929391927fddf252ad1be2c89b69c2b068fc378daa952ba7f163c4a11628f55a4df523b3ef9281900390910190a350505600a165627a7a723058205ab601b57941bc39249450d69337952270690b2fccc3de9fdd0809fa0602a30d0029",
  "devdoc": {
    "methods": {
      "allowance(address,address)": {
        "details": "Function to check the amount of tokens that an owner allowed to a spender.",
        "params": {
          "owner": "address The address which owns the funds.",
          "spender": "address The address which will spend the funds."
        },
        "return": "A uint256 specifying the amount of tokens still available for the spender."
      },
      "approve(address,uint256)": {
        "details": "Approve the passed address to spend the specified amount of tokens on behalf of msg.sender. Beware that changing an allowance with this method brings the risk that someone may use both the old and the new allowance by unfortunate transaction ordering. One possible solution to mitigate this race condition is to first reduce the spender's allowance to 0 and set the desired value afterwards: https://github.com/ethereum/EIPs/issues/20#issuecomment-263524729",
        "params": {
          "spender": "The address which will spend the funds.",
          "value": "The amount of tokens to be spent."
        }
      },
      "balanceOf(address)": {
        "details": "Gets the balance of the specified address.",
        "params": {
          "owner": "The address to query the balance of."
        },
        "return": "An uint256 representing the amount owned by the passed address."
      },
      "decimals()": {
        "return": "the number of decimals of the token."
      },
      "decreaseAllowance(address,uint256)": {
        "details": "Decrease the amount of tokens that an owner allowed to a spender. approve should be called when allowed_[_spender] == 0. To decrement allowed value is better to use this function to avoid 2 calls (and wait until the first transaction is mined) From MonolithDAO Token.sol Emits an Approval event.",
        "params": {
          "spender": "The address which will spend the funds.",
          "subtractedValue": "The amount of tokens to decrease the allowance by."
        }
      },
      "increaseAllowance(address,uint256)": {
        "details": "Increase the amount of tokens that an owner allowed to a spender. approve should be called when allowed_[_spender] == 0. To increment allowed value is better to use this function to avoid 2 calls (and wait until the first transaction is mined) From MonolithDAO Token.sol Emits an Approval event.",
        "params": {
          "addedValue": "The amount of tokens to increase the allowance by.",
          "spender": "The address which will spend the funds."
        }
      },
      "isOwner()": {
        "return": "true if `msg.sender` is the owner of the contract."
      },
      "name()": {
        "return": "the name of the token."
      },
      "owner()": {
        "return": "the address of the owner."
      },
      "renounceOwnership()": {
        "details": "Allows the current owner to relinquish control of the contract."
      },
      "symbol()": {
        "return": "the symbol of the token."
      },
      "totalSupply()": {
        "details": "Total number of tokens in existence"
      },
      "transfer(address,uint256)": {
        "details": "Transfer token for a specified address",
        "params": {
          "to": "The address to transfer to.",
          "value": "The amount to be transferred."
        }
      },
      "transferFrom(address,address,uint256)": {
        "details": "Transfer tokens from one address to another. Note that while this function emits an Approval event, this is not required as per the specification, and other compliant implementations may not emit the event.",
        "params": {
          "from": "address The address which you want to send tokens from",
          "to": "address The address which you want to transfer to",
          "value": "uint256 the amount of tokens to be transferred"
        }
      },
      "transferOwnership(address)": {
        "details": "Allows the current owner to transfer control of the contract to a newOwner.",
        "params": {
          "newOwner": "The address to transfer ownership to."
        }
      }
    }
  },
  "userdoc": {
    "methods": {
      "renounceOwnership()": {
        "notice": "Renouncing to ownership will leave the contract without an owner. It will not be possible to call the functions with the `onlyOwner` modifier anymore."
      }
    }
  }
}