{
  "address": "0xEd9265A05Fd6355061e1051c80450638EC84bff3",
  "abi": [
    {
      "constant": true,
      "inputs": [],
      "name": "name",
      "outputs": [
        {
          "name": "",
          "type": "string"
        }
      ],
      "payable": false,
      "stateMutability": "view",
      "type": "function"
    },
    {
      "constant": false,
      "inputs": [
        {
          "name": "_amount",
          "type": "uint256"
        }
      ],
      "name": "withdrawInterest",
      "outputs": [],
      "payable": false,
      "stateMutability": "nonpayable",
      "type": "function"
    },
    {
      "constant": false,
      "inputs": [
        {
          "name": "spender",
          "type": "address"
        },
        {
          "name": "value",
          "type": "uint256"
        }
      ],
      "name": "approve",
      "outputs": [
        {
          "name": "",
          "type": "bool"
        }
      ],
      "payable": false,
      "stateMutability": "nonpayable",
      "type": "function"
    },
    {
      "constant": true,
      "inputs": [],
      "name": "cReserveToken",
      "outputs": [
        {
          "name": "",
          "type": "address"
        }
      ],
      "payable": false,
      "stateMutability": "view",
      "type": "function"
    },
    {
      "constant": true,
      "inputs": [],
      "name": "totalSupply",
      "outputs": [
        {
          "name": "",
          "type": "uint256"
        }
      ],
      "payable": false,
      "stateMutability": "view",
      "type": "function"
    },
    {
      "constant": false,
      "inputs": [
        {
          "name": "from",
          "type": "address"
        },
        {
          "name": "to",
          "type": "address"
        },
        {
          "name": "value",
          "type": "uint256"
        }
      ],
      "name": "transferFrom",
      "outputs": [
        {
          "name": "",
          "type": "bool"
        }
      ],
      "payable": false,
      "stateMutability": "nonpayable",
      "type": "function"
    },
    {
      "constant": true,
      "inputs": [],
      "name": "decimals",
      "outputs": [
        {
          "name": "",
          "type": "uint8"
        }
      ],
      "payable": false,
      "stateMutability": "view",
      "type": "function"
    },
    {
      "constant": false,
      "inputs": [
        {
          "name": "spender",
          "type": "address"
        },
        {
          "name": "addedValue",
          "type": "uint256"
        }
      ],
      "name": "increaseAllowance",
      "outputs": [
        {
          "name": "",
          "type": "bool"
        }
      ],
      "payable": false,
      "stateMutability": "nonpayable",
      "type": "function"
    },
    {
      "constant": false,
      "inputs": [
        {
          "name": "_amount",
          "type": "uint256"
        }
      ],
      "name": "burn",
      "outputs": [],
      "payable": false,
      "stateMutability": "nonpayable",
      "type": "function"
    },
    {
      "constant": true,
      "inputs": [],
      "name": "totalReserve",
      "outputs": [
        {
          "name": "",
          "type": "uint256"
        }
      ],
      "payable": false,
      "stateMutability": "view",
      "type": "function"
    },
    {
      "constant": true,
      "inputs": [
        {
          "name": "owner",
          "type": "address"
        }
      ],
      "name": "balanceOf",
      "outputs": [
        {
          "name": "",
          "type": "uint256"
        }
      ],
      "payable": false,
      "stateMutability": "view",
      "type": "function"
    },
    {
      "constant": false,
      "inputs": [],
      "name": "renounceOwnership",
      "outputs": [],
      "payable": false,
      "stateMutability": "nonpayable",
      "type": "function"
    },
    {
      "constant": true,
      "inputs": [],
      "name": "owner",
      "outputs": [
        {
          "name": "",
          "type": "address"
        }
      ],
      "payable": false,
      "stateMutability": "view",
      "type": "function"
    },
    {
      "constant": true,
      "inputs": [],
      "name": "isOwner",
      "outputs": [
        {
          "name": "",
          "type": "bool"
        }
      ],
      "payable": false,
      "stateMutability": "view",
      "type": "function"
    },
    {
      "constant": true,
      "inputs": [],
      "name": "symbol",
      "outputs": [
        {
          "name": "",
          "type": "string"
        }
      ],
      "payable": false,
      "stateMutability": "view",
      "type": "function"
    },
    {
      "constant": false,
      "inputs": [
        {
          "name": "_tokenAddress",
          "type": "address"
        },
        {
          "name": "_amount",
          "type": "uint256"
        }
      ],
      "name": "withdrawToken",
      "outputs": [],
      "payable": false,
      "stateMutability": "nonpayable",
      "type": "function"
    },
    {
      "constant": false,
      "inputs": [
        {
          "name": "_amount",
          "type": "uint256"
        }
      ],
      "name": "mint",
      "outputs": [],
      "payable": false,
      "stateMutability": "nonpayable",
      "type": "function"
    },
    {
      "constant": false,
      "inputs": [
        {
          "name": "spender",
          "type": "address"
        },
        {
          "name": "subtractedValue",
          "type": "uint256"
        }
      ],
      "name": "decreaseAllowance",
      "outputs": [
        {
          "name": "",
          "type": "bool"
        }
      ],
      "payable": false,
      "stateMutability": "nonpayable",
      "type": "function"
    },
    {
      "constant": false,
      "inputs": [
        {
          "name": "to",
          "type": "address"
        },
        {
          "name": "value",
          "type": "uint256"
        }
      ],
      "name": "transfer",
      "outputs": [
        {
          "name": "",
          "type": "bool"
        }
      ],
      "payable": false,
      "stateMutability": "nonpayable",
      "type": "function"
    },
    {
      "constant": true,
      "inputs": [],
      "name": "interestAvailable",
      "outputs": [
        {
          "name": "",
          "type": "uint256"
        }
      ],
      "payable": false,
      "stateMutability": "view",
      "type": "function"
    },
    {
      "constant": true,
      "inputs": [
        {
          "name": "owner",
          "type": "address"
        },
        {
          "name": "spender",
          "type": "address"
        }
      ],
      "name": "allowance",
      "outputs": [
        {
          "name": "",
          "type": "uint256"
        }
      ],
      "payable": false,
      "stateMutability": "view",
      "type": "function"
    },
    {
      "constant": false,
      "inputs": [
        {
          "name": "newOwner",
          "type": "address"
        }
      ],
      "name": "transferOwnership",
      "outputs": [],
      "payable": false,
      "stateMutability": "nonpayable",
      "type": "function"
    },
    {
      "constant": true,
      "inputs": [],
      "name": "reserveToken",
      "outputs": [
        {
          "name": "",
          "type": "address"
        }
      ],
      "payable": false,
      "stateMutability": "view",
      "type": "function"
    },
    {
      "inputs": [
        {
          "name": "_reserveTokenAddress",
          "type": "address"
        },
        {
          "name": "_cReserveTokenAddress",
          "type": "address"
        }
      ],
      "payable": false,
      "stateMutability": "nonpayable",
      "type": "constructor"
    },
    {
      "payable": true,
      "stateMutability": "payable",
      "type": "fallback"
    },
    {
      "anonymous": false,
      "inputs": [
        {
          "indexed": false,
          "name": "sender",
          "type": "address"
        },
        {
          "indexed": false,
          "name": "amount",
          "type": "uint256"
        }
      ],
      "name": "Minted",
      "type": "event"
    },
    {
      "anonymous": false,
      "inputs": [
        {
          "indexed": false,
          "name": "sender",
          "type": "address"
        },
        {
          "indexed": false,
          "name": "amount",
          "type": "uint256"
        }
      ],
      "name": "Burned",
      "type": "event"
    },
    {
      "anonymous": false,
      "inputs": [
        {
          "indexed": true,
          "name": "from",
          "type": "address"
        },
        {
          "indexed": true,
          "name": "to",
          "type": "address"
        },
        {
          "indexed": false,
          "name": "value",
          "type": "uint256"
        }
      ],
      "name": "Transfer",
      "type": "event"
    },
    {
      "anonymous": false,
      "inputs": [
        {
          "indexed": true,
          "name": "owner",
          "type": "address"
        },
        {
          "indexed": true,
          "name": "spender",
          "type": "address"
        },
        {
          "indexed": false,
          "name": "value",
          "type": "uint256"
        }
      ],
      "name": "Approval",
      "type": "event"
    },
    {
      "anonymous": false,
      "inputs": [
        {
          "indexed": true,
          "name": "previousOwner",
          "type": "address"
        },
        {
          "indexed": true,
          "name": "newOwner",
          "type": "address"
        }
      ],
      "name": "OwnershipTransferred",
      "type": "event"
    }
  ],
  "transactionHash": "0x2edca90cde6824eacf6ddb1d138a0cdc240108566c341e70a814134e0991c5cc",
  "args": [
    "0x6B175474E89094C44Da98b954EedeAC495271d0F",
    "0x5d3a536E4D6DbD6114cc1Ead35777bAB948E3643"
  ],
  "solcInputHash": "b8694f2175b93f2b6f278f1eceefacdd",
  "bytecode": "0x60806040523480156200001157600080fd5b5060405160408062001b6583398101604081815282516020938401518284018352601584527f4272656164636861696e20537461626c65636f696e00000000000000000000008585015282518084018452600581527f42524541440000000000000000000000000000000000000000000000000000009581019590955260008054600160a060020a0319163317808255935192959194939192601292600160a060020a031691907f8be0079c531659141344cd1fd0a4f28419497f9722a3daafe3b4186f6b6457e0908290a38251620000f290600490602086019062000157565b5081516200010890600590602085019062000157565b506006805460ff90921660ff199092169190911790555050600160075560088054600160a060020a03938416600160a060020a03199182161790915560098054929093169116179055620001fc565b828054600181600116156101000203166002900490600052602060002090601f016020900481019282601f106200019a57805160ff1916838001178555620001ca565b82800160010185558215620001ca579182015b82811115620001ca578251825591602001919060010190620001ad565b50620001d8929150620001dc565b5090565b620001f991905b80821115620001d85760008155600101620001e3565b90565b611959806200020c6000396000f3006080604052600436106101195763ffffffff60e060020a60003504166306fdde03811461011b57806308669aab146101a5578063095ea7b3146101bd5780630da4fea9146101f557806318160ddd1461022657806323b872dd1461024d578063313ce5671461027757806339509351146102a257806342966c68146102c65780634c68df67146102de57806370a08231146102f3578063715018a6146103145780638da5cb5b146103295780638f32d59b1461033e57806395d89b41146103535780639e281a9814610368578063a0712d681461038c578063a457c2d7146103a4578063a9059cbb146103c8578063d9891bf9146103ec578063dd62ed3e14610401578063f2fde38b14610428578063f4325d6714610449575b005b34801561012757600080fd5b5061013061045e565b6040805160208082528351818301528351919283929083019185019080838360005b8381101561016a578181015183820152602001610152565b50505050905090810190601f1680156101975780820380516001836020036101000a031916815260200191505b509250505060405180910390f35b3480156101b157600080fd5b506101196004356104f4565b3480156101c957600080fd5b506101e1600160a060020a0360043516602435610899565b604080519115158252519081900360200190f35b34801561020157600080fd5b5061020a6108af565b60408051600160a060020a039092168252519081900360200190f35b34801561023257600080fd5b5061023b6108be565b60408051918252519081900360200190f35b34801561025957600080fd5b506101e1600160a060020a03600435811690602435166044356108c4565b34801561028357600080fd5b5061028c61091b565b6040805160ff9092168252519081900360200190f35b3480156102ae57600080fd5b506101e1600160a060020a0360043516602435610924565b3480156102d257600080fd5b50610119600435610960565b3480156102ea57600080fd5b5061023b610be4565b3480156102ff57600080fd5b5061023b600160a060020a0360043516610bea565b34801561032057600080fd5b50610119610c05565b34801561033557600080fd5b5061020a610c6f565b34801561034a57600080fd5b506101e1610c7e565b34801561035f57600080fd5b50610130610c8f565b34801561037457600080fd5b50610119600160a060020a0360043516602435610cf0565b34801561039857600080fd5b50610119600435610fc5565b3480156103b057600080fd5b506101e1600160a060020a03600435166024356112de565b3480156103d457600080fd5b506101e1600160a060020a036004351660243561131a565b3480156103f857600080fd5b5061023b611327565b34801561040d57600080fd5b5061023b600160a060020a03600435811690602435166113d5565b34801561043457600080fd5b50610119600160a060020a0360043516611400565b34801561045557600080fd5b5061020a61141f565b60048054604080516020601f60026000196101006001881615020190951694909404938401819004810282018101909252828152606093909290918301828280156104ea5780601f106104bf576101008083540402835291602001916104ea565b820191906000526020600020905b8154815290600101906020018083116104cd57829003601f168201915b5050505050905090565b60006104fe610c7e565b151561050957600080fd5b60075460021415610564576040805160e560020a62461bcd02815260206004820152601f60248201527f5265656e7472616e637947756172643a207265656e7472616e742063616c6c00604482015290519081900360640190fd5b6002600755600082116105e6576040805160e560020a62461bcd028152602060048201526024808201527f7769746864726177496e74657265737428292063616e6e6f742077697468647260448201527f6177203000000000000000000000000000000000000000000000000000000000606482015290519081900360840190fd5b6105ee611327565b90508181101561066e576040805160e560020a62461bcd02815260206004820152603c60248201527f7769746864726177496e746572657374282920696e746572657374206163637260448201527f7565642069732062656c6f7720776974686472617720616d6f756e7400000000606482015290519081900360840190fd5b600954604080517f852a12e3000000000000000000000000000000000000000000000000000000008152600481018590529051600160a060020a039092169163852a12e3916024808201926020929091908290030181600087803b1580156106d557600080fd5b505af11580156106e9573d6000803e3d6000fd5b505050506040513d60208110156106ff57600080fd5b50511561077c576040805160e560020a62461bcd02815260206004820152603260248201527f7769746864726177496e7465726573742829206345524332302e72656465656d60448201527f556e6465726c79696e67206661696c65642e0000000000000000000000000000606482015290519081900360840190fd5b600854600160a060020a031663a9059cbb610795610c6f565b846040518363ffffffff1660e060020a0281526004018083600160a060020a0316600160a060020a0316815260200182815260200192505050602060405180830381600087803b1580156107e857600080fd5b505af11580156107fc573d6000803e3d6000fd5b505050506040513d602081101561081257600080fd5b50511515610890576040805160e560020a62461bcd02815260206004820152602960248201527f7769746864726177496e74657265737428292045524332302e7472616e73666560448201527f72206661696c65642e0000000000000000000000000000000000000000000000606482015290519081900360840190fd5b50506001600755565b60006108a633848461142e565b50600192915050565b600954600160a060020a031681565b60035490565b60006108d18484846114ba565b600160a060020a03841660009081526002602090815260408083203380855292529091205461091191869161090c908663ffffffff61158916565b61142e565b5060019392505050565b60065460ff1690565b336000818152600260209081526040808320600160a060020a038716845290915281205490916108a691859061090c908663ffffffff6115a016565b600754600214156109bb576040805160e560020a62461bcd02815260206004820152601f60248201527f5265656e7472616e637947756172643a207265656e7472616e742063616c6c00604482015290519081900360640190fd5b60026007556109c9816115b9565b600954604080517f852a12e3000000000000000000000000000000000000000000000000000000008152600481018490529051600160a060020a039092169163852a12e3916024808201926020929091908290030181600087803b158015610a3057600080fd5b505af1158015610a44573d6000803e3d6000fd5b505050506040513d6020811015610a5a57600080fd5b505115610ad7576040805160e560020a62461bcd02815260206004820152602660248201527f6275726e2829206345524332302e72656465656d556e6465726c79696e67206660448201527f61696c65642e0000000000000000000000000000000000000000000000000000606482015290519081900360840190fd5b600a54610aea908263ffffffff61158916565b600a55600854604080517fa9059cbb000000000000000000000000000000000000000000000000000000008152336004820152602481018490529051600160a060020a039092169163a9059cbb916044808201926020929091908290030181600087803b158015610b5a57600080fd5b505af1158015610b6e573d6000803e3d6000fd5b505050506040513d6020811015610b8457600080fd5b50511515610bdc576040805160e560020a62461bcd02815260206004820152601d60248201527f6275726e28292045524332302e7472616e73666572206661696c65642e000000604482015290519081900360640190fd5b506001600755565b600a5481565b600160a060020a031660009081526001602052604090205490565b610c0d610c7e565b1515610c1857600080fd5b60008054604051600160a060020a03909116907f8be0079c531659141344cd1fd0a4f28419497f9722a3daafe3b4186f6b6457e0908390a36000805473ffffffffffffffffffffffffffffffffffffffff19169055565b600054600160a060020a031690565b600054600160a060020a0316331490565b60058054604080516020601f60026000196101006001881615020190951694909404938401819004810282018101909252828152606093909290918301828280156104ea5780601f106104bf576101008083540402835291602001916104ea565b610cf8610c7e565b1515610d0357600080fd5b60075460021415610d5e576040805160e560020a62461bcd02815260206004820152601f60248201527f5265656e7472616e637947756172643a207265656e7472616e742063616c6c00604482015290519081900360640190fd5b6002600755600954600160a060020a0383811691161415610def576040805160e560020a62461bcd02815260206004820152603160248201527f7769746864726177546f6b656e28292063616e6e6f742077697468647261772060448201527f636f6c6c61746572616c20746f6b656e2e000000000000000000000000000000606482015290519081900360840190fd5b600160a060020a03821673eeeeeeeeeeeeeeeeeeeeeeeeeeeeeeeeeeeeeeee1415610eb3573031811115610e6d576040805160e560020a62461bcd02815260206004820152601f60248201527f7769746864726177546f6b656e28292062616c616e636520746f6f206c6f7700604482015290519081900360640190fd5b610e75610c6f565b600160a060020a03166108fc829081150290604051600060405180830381858888f19350505050158015610ead573d6000803e3d6000fd5b50610890565b81600160a060020a031663a9059cbb610eca610c6f565b836040518363ffffffff1660e060020a0281526004018083600160a060020a0316600160a060020a0316815260200182815260200192505050602060405180830381600087803b158015610f1d57600080fd5b505af1158015610f31573d6000803e3d6000fd5b505050506040513d6020811015610f4757600080fd5b50511515610890576040805160e560020a62461bcd02815260206004820152602660248201527f7769746864726177546f6b656e28292045524332302e7472616e73666572206660448201527f61696c65642e0000000000000000000000000000000000000000000000000000606482015290519081900360840190fd5b610fce816116b9565b600854604080517f23b872dd000000000000000000000000000000000000000000000000000000008152336004820152306024820152604481018490529051600160a060020a03909216916323b872dd916064808201926020929091908290030181600087803b15801561104157600080fd5b505af1158015611055573d6000803e3d6000fd5b505050506040513d602081101561106b57600080fd5b505115156110e9576040805160e560020a62461bcd02815260206004820152602160248201527f6d696e7428292045524332302e7472616e7366657246726f6d206661696c656460448201527f2e00000000000000000000000000000000000000000000000000000000000000606482015290519081900360840190fd5b600854600954604080517f095ea7b3000000000000000000000000000000000000000000000000000000008152600160a060020a039283166004820152602481018590529051919092169163095ea7b39160448083019260209291908290030181600087803b15801561115b57600080fd5b505af115801561116f573d6000803e3d6000fd5b505050506040513d602081101561118557600080fd5b505115156111dd576040805160e560020a62461bcd02815260206004820152601c60248201527f6d696e7428292045524332302e617070726f7665206661696c65642e00000000604482015290519081900360640190fd5b600954604080517fa0712d68000000000000000000000000000000000000000000000000000000008152600481018490529051600160a060020a039092169163a0712d68916024808201926020929091908290030181600087803b15801561124457600080fd5b505af1158015611258573d6000803e3d6000fd5b505050506040513d602081101561126e57600080fd5b5051156112c5576040805160e560020a62461bcd02815260206004820152601a60248201527f6d696e742829206345524332302e6d696e74206661696c65642e000000000000604482015290519081900360640190fd5b600a546112d8908263ffffffff6115a016565b600a5550565b336000818152600260209081526040808320600160a060020a038716845290915281205490916108a691859061090c908663ffffffff61158916565b60006108a63384846114ba565b600a54600954604080517f3af9e66900000000000000000000000000000000000000000000000000000000815230600482015290516000936113d0939092600160a060020a0390911691633af9e6699160248082019260209290919082900301818987803b15801561139857600080fd5b505af11580156113ac573d6000803e3d6000fd5b505050506040513d60208110156113c257600080fd5b50519063ffffffff61158916565b905090565b600160a060020a03918216600090815260026020908152604080832093909416825291909152205490565b611408610c7e565b151561141357600080fd5b61141c81611759565b50565b600854600160a060020a031681565b600160a060020a038216151561144357600080fd5b600160a060020a038316151561145857600080fd5b600160a060020a03808416600081815260026020908152604080832094871680845294825291829020859055815185815291517f8c5be1e5ebec7d5bd14f71427d1e84f3dd0314c0f7b2291e5b200ac8c7c3b9259281900390910190a3505050565b600160a060020a03821615156114cf57600080fd5b600160a060020a0383166000908152600160205260409020546114f8908263ffffffff61158916565b600160a060020a03808516600090815260016020526040808220939093559084168152205461152d908263ffffffff6115a016565b600160a060020a0380841660008181526001602090815260409182902094909455805185815290519193928716927fddf252ad1be2c89b69c2b068fc378daa952ba7f163c4a11628f55a4df523b3ef92918290030190a3505050565b6000808383111561159957600080fd5b5050900390565b6000828201838110156115b257600080fd5b9392505050565b60008111611611576040805160e560020a62461bcd02815260206004820152601860248201527f416d6f756e74206d757374206265206e6f6e2d7a65726f2e0000000000000000604482015290519081900360640190fd5b8061161b33610bea565b1015611671576040805160e560020a62461bcd02815260206004820152601c60248201527f496e73756666696369656e7420746f6b656e7320746f206275726e2e00000000604482015290519081900360640190fd5b61167b33826117d6565b604080513381526020810183905281517f696de425f79f4a40bc6d2122ca50507f0efbeabbff86a84871b7196ab8ea8df7929181900390910190a150565b60008111611711576040805160e560020a62461bcd02815260206004820152601960248201527f4465706f736974206d757374206265206e6f6e2d7a65726f2e00000000000000604482015290519081900360640190fd5b61171b3382611881565b604080513381526020810183905281517f30385c845b448a36257a6a1716e6ad2e1bc2cbe333cde1e69fe849ad6511adfe929181900390910190a150565b600160a060020a038116151561176e57600080fd5b60008054604051600160a060020a03808516939216917f8be0079c531659141344cd1fd0a4f28419497f9722a3daafe3b4186f6b6457e091a36000805473ffffffffffffffffffffffffffffffffffffffff1916600160a060020a0392909216919091179055565b600160a060020a03821615156117eb57600080fd5b6003546117fe908263ffffffff61158916565b600355600160a060020a03821660009081526001602052604090205461182a908263ffffffff61158916565b600160a060020a0383166000818152600160209081526040808320949094558351858152935191937fddf252ad1be2c89b69c2b068fc378daa952ba7f163c4a11628f55a4df523b3ef929081900390910190a35050565b600160a060020a038216151561189657600080fd5b6003546118a9908263ffffffff6115a016565b600355600160a060020a0382166000908152600160205260409020546118d5908263ffffffff6115a016565b600160a060020a03831660008181526001602090815260408083209490945583518581529351929391927fddf252ad1be2c89b69c2b068fc378daa952ba7f163c4a11628f55a4df523b3ef9281900390910190a350505600a165627a7a723058204c1351e06fd483acde5218a3e3bfcdbdcb461a2f31f09fe5cb3645735e2385c00029",
  "devdoc": {
    "methods": {
      "allowance(address,address)": {
        "details": "Function to check the amount of tokens that an owner allowed to a spender.",
        "params": {
          "owner": "address The address which owns the funds.",
          "spender": "address The address which will spend the funds."
        },
        "return": "A uint256 specifying the amount of tokens still available for the spender."
      },
      "approve(address,uint256)": {
        "details": "Approve the passed address to spend the specified amount of tokens on behalf of msg.sender. Beware that changing an allowance with this method brings the risk that someone may use both the old and the new allowance by unfortunate transaction ordering. One possible solution to mitigate this race condition is to first reduce the spender's allowance to 0 and set the desired value afterwards: https://github.com/ethereum/EIPs/issues/20#issuecomment-263524729",
        "params": {
          "spender": "The address which will spend the funds.",
          "value": "The amount of tokens to be spent."
        }
      },
      "balanceOf(address)": {
        "details": "Gets the balance of the specified address.",
        "params": {
          "owner": "The address to query the balance of."
        },
        "return": "An uint256 representing the amount owned by the passed address."
      },
      "decimals()": {
        "return": "the number of decimals of the token."
      },
      "decreaseAllowance(address,uint256)": {
        "details": "Decrease the amount of tokens that an owner allowed to a spender. approve should be called when allowed_[_spender] == 0. To decrement allowed value is better to use this function to avoid 2 calls (and wait until the first transaction is mined) From MonolithDAO Token.sol Emits an Approval event.",
        "params": {
          "spender": "The address which will spend the funds.",
          "subtractedValue": "The amount of tokens to decrease the allowance by."
        }
      },
      "increaseAllowance(address,uint256)": {
        "details": "Increase the amount of tokens that an owner allowed to a spender. approve should be called when allowed_[_spender] == 0. To increment allowed value is better to use this function to avoid 2 calls (and wait until the first transaction is mined) From MonolithDAO Token.sol Emits an Approval event.",
        "params": {
          "addedValue": "The amount of tokens to increase the allowance by.",
          "spender": "The address which will spend the funds."
        }
      },
      "isOwner()": {
        "return": "true if `msg.sender` is the owner of the contract."
      },
      "name()": {
        "return": "the name of the token."
      },
      "owner()": {
        "return": "the address of the owner."
      },
      "renounceOwnership()": {
        "details": "Allows the current owner to relinquish control of the contract."
      },
      "symbol()": {
        "return": "the symbol of the token."
      },
      "totalSupply()": {
        "details": "Total number of tokens in existence"
      },
      "transfer(address,uint256)": {
        "details": "Transfer token for a specified address",
        "params": {
          "to": "The address to transfer to.",
          "value": "The amount to be transferred."
        }
      },
      "transferFrom(address,address,uint256)": {
        "details": "Transfer tokens from one address to another. Note that while this function emits an Approval event, this is not required as per the specification, and other compliant implementations may not emit the event.",
        "params": {
          "from": "address The address which you want to send tokens from",
          "to": "address The address which you want to transfer to",
          "value": "uint256 the amount of tokens to be transferred"
        }
      },
      "transferOwnership(address)": {
        "details": "Allows the current owner to transfer control of the contract to a newOwner.",
        "params": {
          "newOwner": "The address to transfer ownership to."
        }
      }
    }
  },
  "userdoc": {
    "methods": {
      "renounceOwnership()": {
        "notice": "Renouncing to ownership will leave the contract without an owner. It will not be possible to call the functions with the `onlyOwner` modifier anymore."
      }
    }
  }
}